{"contracts/UserContract_hx.sol":{"UserContract_hx":{"abi":[{"inputs":[],"stateMutability":"nonpayable","type":"constructor"},{"anonymous":false,"inputs":[{"indexed":true,"internalType":"address","name":"user_hx","type":"address"},{"indexed":false,"internalType":"int256","name":"amount_hx","type":"int256"},{"indexed":false,"internalType":"string","name":"description_hx","type":"string"}],"name":"BalanceUpdated_hx","type":"event"},{"anonymous":false,"inputs":[{"indexed":true,"internalType":"address","name":"merchant_hx","type":"address"},{"indexed":true,"internalType":"address","name":"user_hx","type":"address"},{"indexed":false,"internalType":"uint256","name":"rating_hx","type":"uint256"}],"name":"MerchantRated_hx","type":"event"},{"anonymous":false,"inputs":[{"indexed":true,"internalType":"address","name":"user_hx","type":"address"},{"indexed":false,"internalType":"uint256","name":"price_hx","type":"uint256"},{"indexed":false,"internalType":"string","name":"description_hx","type":"string"}],"name":"ProductPurchased_hx","type":"event"},{"anonymous":false,"inputs":[{"indexed":true,"internalType":"uint256","name":"productId","type":"uint256"},{"indexed":true,"internalType":"address","name":"user","type":"address"},{"indexed":false,"internalType":"uint256","name":"rating","type":"uint256"},{"indexed":false,"internalType":"string","name":"comment","type":"string"}],"name":"UserCommentAdded","type":"event"},{"anonymous":false,"inputs":[{"indexed":true,"internalType":"address","name":"user_hx","type":"address"},{"indexed":true,"internalType":"address","name":"merchant_hx","type":"address"},{"indexed":false,"internalType":"uint256","name":"rating_hx","type":"uint256"}],"name":"UserRated_hx","type":"event"},{"anonymous":false,"inputs":[{"indexed":true,"internalType":"address","name":"user_hx","type":"address"},{"indexed":false,"internalType":"string","name":"userName_hx","type":"string"}],"name":"UserRegistered_hx","type":"event"},{"inputs":[{"internalType":"uint256","name":"_productId_hx","type":"uint256"},{"internalType":"uint256","name":"_rating_hx","type":"uint256"},{"internalType":"string","name":"_comment_hx","type":"string"}],"name":"addComment_hx","outputs":[],"stateMutability":"nonpayable","type":"function"},{"inputs":[{"internalType":"address","name":"","type":"address"}],"name":"balances_hx","outputs":[{"internalType":"int256","name":"","type":"int256"}],"stateMutability":"view","type":"function"},{"inputs":[],"name":"getBalance_hx","outputs":[{"internalType":"int256","name":"","type":"int256"}],"stateMutability":"view","type":"function"},{"inputs":[],"name":"getTransactionHistory_hx","outputs":[{"components":[{"internalType":"uint256","name":"productId_hx","type":"uint256"},{"internalType":"uint256","name":"price_hx","type":"uint256"},{"internalType":"uint256","name":"timestamp_hx","type":"uint256"}],"internalType":"struct UserContract_hx.Purchase[]","name":"","type":"tuple[]"}],"stateMutability":"view","type":"function"},{"inputs":[{"internalType":"string","name":"_userName","type":"string"}],"name":"getUserAddress_hx","outputs":[{"internalType":"address","name":"","type":"address"}],"stateMutability":"view","type":"function"},{"inputs":[{"internalType":"string","name":"_userName","type":"string"},{"internalType":"string","name":"_password","type":"string"}],"name":"login_hx","outputs":[{"internalType":"address","name":"","type":"address"}],"stateMutability":"view","type":"function"},{"inputs":[],"name":"merchantContractAddress_hx","outputs":[{"internalType":"address","name":"","type":"address"}],"stateMutability":"view","type":"function"},{"inputs":[{"internalType":"uint256","name":"_productId_hx","type":"uint256"},{"internalType":"uint256","name":"_price_hx","type":"uint256"}],"name":"purchaseProduct_hx","outputs":[],"stateMutability":"nonpayable","type":"function"},{"inputs":[{"internalType":"string","name":"_userName","type":"string"},{"internalType":"string","name":"_password","type":"string"}],"name":"registerAsUser_hx","outputs":[],"stateMutability":"nonpayable","type":"function"},{"inputs":[{"internalType":"address","name":"_merchant_hx","type":"address"},{"internalType":"uint256","name":"_rating_hx","type":"uint256"}],"name":"respondToMerchantRating_hx","outputs":[],"stateMutability":"nonpayable","type":"function"},{"inputs":[{"internalType":"address","name":"_merchantContractAddress_hx","type":"address"}],"name":"setMerchantContractAddress_hx","outputs":[],"stateMutability":"nonpayable","type":"function"},{"inputs":[{"internalType":"address","name":"","type":"address"},{"internalType":"uint256","name":"","type":"uint256"}],"name":"transactionHistory_hx","outputs":[{"internalType":"uint256","name":"productId_hx","type":"uint256"},{"internalType":"uint256","name":"price_hx","type":"uint256"},{"internalType":"uint256","name":"timestamp_hx","type":"uint256"}],"stateMutability":"view","type":"function"},{"inputs":[{"internalType":"address","name":"user_hx","type":"address"},{"internalType":"int256","name":"amount_hx","type":"int256"},{"internalType":"string","name":"description_hx","type":"string"}],"name":"updateBalance_hx","outputs":[],"stateMutability":"nonpayable","type":"function"},{"inputs":[{"internalType":"address","name":"","type":"address"}],"name":"users_hx","outputs":[{"internalType":"bool","name":"","type":"bool"}],"stateMutability":"view","type":"function"},{"inputs":[{"internalType":"string","name":"_userName","type":"string"},{"internalType":"string","name":"_password","type":"string"}],"name":"verifyPwd_hx","outputs":[{"internalType":"bool","name":"","type":"bool"}],"stateMutability":"view","type":"function"}],"evm":{"bytecode":{"linkReferences":{},"object":"608060405234801561001057600080fd5b50612710600160003373ffffffffffffffffffffffffffffffffffffffff1673ffffffffffffffffffffffffffffffffffffffff1681526020019081526020016000208190555033600660006101000a81548173ffffffffffffffffffffffffffffffffffffffff021916908373ffffffffffffffffffffffffffffffffffffffff1602179055506123fc806100a76000396000f3fe608060405234801561001057600080fd5b50600436106100f55760003560e01c8063a666f70511610097578063e1a9797f11610066578063e1a9797f14610298578063ee22d9ce146102c8578063fcb15486146102e4578063fe907d2d14610302576100f5565b8063a666f70514610224578063c234ac9c14610242578063c59276791461025e578063e0d4d4ca1461027c576100f5565b80634d49c8bf116100d35780634d49c8bf146101625780636969b3ed1461019257806389392a68146101c45780638ef47a31146101f4576100f5565b8063114805fd146100fa57806325481bd01461012a5780633931ed1e14610146575b600080fd5b610114600480360381019061010f9190611366565b61031e565b604051610121919061141f565b60405180910390f35b610144600480360381019061013f9190611366565b6104a7565b005b610160600480360381019061015b919061149c565b610686565b005b61017c600480360381019061017791906114dc565b61092d565b6040516101899190611522565b60405180910390f35b6101ac60048036038101906101a7919061149c565b610945565b6040516101bb9392919061154c565b60405180910390f35b6101de60048036038101906101d99190611583565b61098c565b6040516101eb919061141f565b60405180910390f35b61020e600480360381019061020991906114dc565b6109d4565b60405161021b91906115e7565b60405180910390f35b61022c6109f4565b604051610239919061141f565b60405180910390f35b61025c60048036038101906102579190611602565b610a1a565b005b610266610bed565b6040516102739190611522565b60405180910390f35b61029660048036038101906102919190611642565b610c34565b005b6102b260048036038101906102ad9190611366565b610cdb565b6040516102bf91906115e7565b60405180910390f35b6102e260048036038101906102dd91906116dd565b610e24565b005b6102ec610fed565b6040516102f9919061184c565b60405180910390f35b61031c600480360381019061031791906114dc565b6110a7565b005b60008060038460405161033191906118df565b908152602001604051809103902060009054906101000a900473ffffffffffffffffffffffffffffffffffffffff169050600073ffffffffffffffffffffffffffffffffffffffff168173ffffffffffffffffffffffffffffffffffffffff16036103d1576040517f08c379a00000000000000000000000000000000000000000000000000000000081526004016103c890611953565b60405180910390fd5b826040516020016103e291906118df565b60405160208183030381529060405280519060200120600460008373ffffffffffffffffffffffffffffffffffffffff1673ffffffffffffffffffffffffffffffffffffffff1681526020019081526020016000206040516020016104479190611a6b565b604051602081830303815290604052805190602001201461049d576040517f08c379a000000000000000000000000000000000000000000000000000000000815260040161049490611ace565b60405180910390fd5b8091505092915050565b6000803373ffffffffffffffffffffffffffffffffffffffff1673ffffffffffffffffffffffffffffffffffffffff16815260200190815260200160002060009054906101000a900460ff1615610533576040517f08c379a000000000000000000000000000000000000000000000000000000000815260040161052a90611b3a565b60405180910390fd5b60016000803373ffffffffffffffffffffffffffffffffffffffff1673ffffffffffffffffffffffffffffffffffffffff16815260200190815260200160002060006101000a81548160ff0219169083151502179055503360038360405161059b91906118df565b908152602001604051809103902060006101000a81548173ffffffffffffffffffffffffffffffffffffffff021916908373ffffffffffffffffffffffffffffffffffffffff16021790555080600460003373ffffffffffffffffffffffffffffffffffffffff1673ffffffffffffffffffffffffffffffffffffffff16815260200190815260200160002090816106339190611cf1565b503373ffffffffffffffffffffffffffffffffffffffff167fbcd9ee4b7a821e24c5294ba8c6e0879e94ac7af1ccf278948a42804d8be1cebf8360405161067a9190611dfc565b60405180910390a25050565b60018110158015610698575060058111155b6106d7576040517f08c379a00000000000000000000000000000000000000000000000000000000081526004016106ce90611e6a565b60405180910390fd5b6000803373ffffffffffffffffffffffffffffffffffffffff1673ffffffffffffffffffffffffffffffffffffffff16815260200190815260200160002060009054906101000a900460ff16610762576040517f08c379a000000000000000000000000000000000000000000000000000000000815260040161075990611efc565b60405180910390fd5b6000600560009054906101000a900473ffffffffffffffffffffffffffffffffffffffff1673ffffffffffffffffffffffffffffffffffffffff16836000846040516024016107b393929190611f64565b6040516020818303038152906040527f14be6526000000000000000000000000000000000000000000000000000000007bffffffffffffffffffffffffffffffffffffffffffffffffffffffff19166020820180517bffffffffffffffffffffffffffffffffffffffffffffffffffffffff838183161783525050505060405161083d9190611fe2565b6000604051808303816000865af19150503d806000811461087a576040519150601f19603f3d011682016040523d82523d6000602084013e61087f565b606091505b50509050806108c3576040517f08c379a00000000000000000000000000000000000000000000000000000000081526004016108ba9061206b565b60405180910390fd5b3373ffffffffffffffffffffffffffffffffffffffff168373ffffffffffffffffffffffffffffffffffffffff167f56d02be0efee267c8d00b1d33fcb63529028c8ce5b517f3abd9fb1debe4947f384604051610920919061208b565b60405180910390a3505050565b60016020528060005260406000206000915090505481565b6002602052816000526040600020818154811061096157600080fd5b9060005260206000209060030201600091509150508060000154908060010154908060020154905083565b600060038260405161099e91906118df565b908152602001604051809103902060009054906101000a900473ffffffffffffffffffffffffffffffffffffffff169050919050565b60006020528060005260406000206000915054906101000a900460ff1681565b600560009054906101000a900473ffffffffffffffffffffffffffffffffffffffff1681565b80600160003373ffffffffffffffffffffffffffffffffffffffff1673ffffffffffffffffffffffffffffffffffffffff168152602001908152602001600020541215610a9c576040517f08c379a0000000000000000000000000000000000000000000000000000000008152600401610a93906120f2565b60405180910390fd5b80600160003373ffffffffffffffffffffffffffffffffffffffff1673ffffffffffffffffffffffffffffffffffffffff1681526020019081526020016000206000828254610aeb9190612141565b9250508190555060006040518060600160405280848152602001838152602001428152509050600260003373ffffffffffffffffffffffffffffffffffffffff1673ffffffffffffffffffffffffffffffffffffffff16815260200190815260200160002081908060018154018082558091505060019003906000526020600020906003020160009091909190915060008201518160000155602082015181600101556040820151816002015550503373ffffffffffffffffffffffffffffffffffffffff167ff6af08f00d4fc13a2c8f9cbb9142f3699c437dfb4a1fa364406a0a00a4f2024883604051610be091906121d0565b60405180910390a2505050565b6000600160003373ffffffffffffffffffffffffffffffffffffffff1673ffffffffffffffffffffffffffffffffffffffff16815260200190815260200160002054905090565b60018210158015610c46575060058211155b610c85576040517f08c379a0000000000000000000000000000000000000000000000000000000008152600401610c7c90611e6a565b60405180910390fd5b3373ffffffffffffffffffffffffffffffffffffffff16837f26ef10767f94ec1a55a76c37c915b04c1c548db6620a9f042ca98807c4de75c38484604051610cce9291906121fe565b60405180910390a3505050565b600080600384604051610cee91906118df565b908152602001604051809103902060009054906101000a900473ffffffffffffffffffffffffffffffffffffffff169050600073ffffffffffffffffffffffffffffffffffffffff168173ffffffffffffffffffffffffffffffffffffffff1603610d8e576040517f08c379a0000000000000000000000000000000000000000000000000000000008152600401610d8590611953565b60405180910390fd5b82604051602001610d9f91906118df565b60405160208183030381529060405280519060200120600460008373ffffffffffffffffffffffffffffffffffffffff1673ffffffffffffffffffffffffffffffffffffffff168152602001908152602001600020604051602001610e049190611a6b565b604051602081830303815290604052805190602001201491505092915050565b600660009054906101000a900473ffffffffffffffffffffffffffffffffffffffff1673ffffffffffffffffffffffffffffffffffffffff163373ffffffffffffffffffffffffffffffffffffffff1614610eb4576040517f08c379a0000000000000000000000000000000000000000000000000000000008152600401610eab906122a0565b60405180910390fd5b600082600160008673ffffffffffffffffffffffffffffffffffffffff1673ffffffffffffffffffffffffffffffffffffffff16815260200190815260200160002054610f0191906122c0565b1215610f42576040517f08c379a0000000000000000000000000000000000000000000000000000000008152600401610f39906120f2565b60405180910390fd5b81600160008573ffffffffffffffffffffffffffffffffffffffff1673ffffffffffffffffffffffffffffffffffffffff1681526020019081526020016000206000828254610f9191906122c0565b925050819055508273ffffffffffffffffffffffffffffffffffffffff167f85b889929cbb1a1380afd926b937c322436603064bf95637da4256393904c36c8383604051610fe0929190612304565b60405180910390a2505050565b6060600260003373ffffffffffffffffffffffffffffffffffffffff1673ffffffffffffffffffffffffffffffffffffffff168152602001908152602001600020805480602002602001604051908101604052809291908181526020016000905b8282101561109e578382906000526020600020906003020160405180606001604052908160008201548152602001600182015481526020016002820154815250508152602001906001019061104e565b50505050905090565b600073ffffffffffffffffffffffffffffffffffffffff16600560009054906101000a900473ffffffffffffffffffffffffffffffffffffffff1673ffffffffffffffffffffffffffffffffffffffff1614611138576040517f08c379a000000000000000000000000000000000000000000000000000000000815260040161112f906123a6565b60405180910390fd5b600660009054906101000a900473ffffffffffffffffffffffffffffffffffffffff1673ffffffffffffffffffffffffffffffffffffffff163373ffffffffffffffffffffffffffffffffffffffff16146111c8576040517f08c379a00000000000000000000000000000000000000000000000000000000081526004016111bf906122a0565b60405180910390fd5b80600560006101000a81548173ffffffffffffffffffffffffffffffffffffffff021916908373ffffffffffffffffffffffffffffffffffffffff16021790555050565b6000604051905090565b600080fd5b600080fd5b600080fd5b600080fd5b6000601f19601f8301169050919050565b7f4e487b7100000000000000000000000000000000000000000000000000000000600052604160045260246000fd5b6112738261122a565b810181811067ffffffffffffffff821117156112925761129161123b565b5b80604052505050565b60006112a561120c565b90506112b1828261126a565b919050565b600067ffffffffffffffff8211156112d1576112d061123b565b5b6112da8261122a565b9050602081019050919050565b82818337600083830152505050565b6000611309611304846112b6565b61129b565b90508281526020810184848401111561132557611324611225565b5b6113308482856112e7565b509392505050565b600082601f83011261134d5761134c611220565b5b813561135d8482602086016112f6565b91505092915050565b6000806040838503121561137d5761137c611216565b5b600083013567ffffffffffffffff81111561139b5761139a61121b565b5b6113a785828601611338565b925050602083013567ffffffffffffffff8111156113c8576113c761121b565b5b6113d485828601611338565b9150509250929050565b600073ffffffffffffffffffffffffffffffffffffffff82169050919050565b6000611409826113de565b9050919050565b611419816113fe565b82525050565b60006020820190506114346000830184611410565b92915050565b611443816113fe565b811461144e57600080fd5b50565b6000813590506114608161143a565b92915050565b6000819050919050565b61147981611466565b811461148457600080fd5b50565b60008135905061149681611470565b92915050565b600080604083850312156114b3576114b2611216565b5b60006114c185828601611451565b92505060206114d285828601611487565b9150509250929050565b6000602082840312156114f2576114f1611216565b5b600061150084828501611451565b91505092915050565b6000819050919050565b61151c81611509565b82525050565b60006020820190506115376000830184611513565b92915050565b61154681611466565b82525050565b6000606082019050611561600083018661153d565b61156e602083018561153d565b61157b604083018461153d565b949350505050565b60006020828403121561159957611598611216565b5b600082013567ffffffffffffffff8111156115b7576115b661121b565b5b6115c384828501611338565b91505092915050565b60008115159050919050565b6115e1816115cc565b82525050565b60006020820190506115fc60008301846115d8565b92915050565b6000806040838503121561161957611618611216565b5b600061162785828601611487565b925050602061163885828601611487565b9150509250929050565b60008060006060848603121561165b5761165a611216565b5b600061166986828701611487565b935050602061167a86828701611487565b925050604084013567ffffffffffffffff81111561169b5761169a61121b565b5b6116a786828701611338565b9150509250925092565b6116ba81611509565b81146116c557600080fd5b50565b6000813590506116d7816116b1565b92915050565b6000806000606084860312156116f6576116f5611216565b5b600061170486828701611451565b9350506020611715868287016116c8565b925050604084013567ffffffffffffffff8111156117365761173561121b565b5b61174286828701611338565b9150509250925092565b600081519050919050565b600082825260208201905092915050565b6000819050602082019050919050565b61178181611466565b82525050565b60608201600082015161179d6000850182611778565b5060208201516117b06020850182611778565b5060408201516117c36040850182611778565b50505050565b60006117d58383611787565b60608301905092915050565b6000602082019050919050565b60006117f98261174c565b6118038185611757565b935061180e83611768565b8060005b8381101561183f57815161182688826117c9565b9750611831836117e1565b925050600181019050611812565b5085935050505092915050565b6000602082019050818103600083015261186681846117ee565b905092915050565b600081519050919050565b600081905092915050565b60005b838110156118a2578082015181840152602081019050611887565b60008484015250505050565b60006118b98261186e565b6118c38185611879565b93506118d3818560208601611884565b80840191505092915050565b60006118eb82846118ae565b915081905092915050565b600082825260208201905092915050565b7f55736572206e6f7420666f756e64000000000000000000000000000000000000600082015250565b600061193d600e836118f6565b915061194882611907565b602082019050919050565b6000602082019050818103600083015261196c81611930565b9050919050565b7f4e487b7100000000000000000000000000000000000000000000000000000000600052602260045260246000fd5b600060028204905060018216806119ba57607f821691505b6020821081036119cd576119cc611973565b5b50919050565b60008190508160005260206000209050919050565b600081546119f5816119a2565b6119ff8186611879565b94506001821660008114611a1a5760018114611a2f57611a62565b60ff1983168652811515820286019350611a62565b611a38856119d3565b60005b83811015611a5a57815481890152600182019150602081019050611a3b565b838801955050505b50505092915050565b6000611a7782846119e8565b915081905092915050565b7f496e636f72726563742070617373776f72640000000000000000000000000000600082015250565b6000611ab86012836118f6565b9150611ac382611a82565b602082019050919050565b60006020820190508181036000830152611ae781611aab565b9050919050565b7f5573657220616c72656164792072656769737465726564000000000000000000600082015250565b6000611b246017836118f6565b9150611b2f82611aee565b602082019050919050565b60006020820190508181036000830152611b5381611b17565b9050919050565b60006020601f8301049050919050565b600082821b905092915050565b600060088302611ba77fffffffffffffffffffffffffffffffffffffffffffffffffffffffffffffffff82611b6a565b611bb18683611b6a565b95508019841693508086168417925050509392505050565b6000819050919050565b6000611bee611be9611be484611466565b611bc9565b611466565b9050919050565b6000819050919050565b611c0883611bd3565b611c1c611c1482611bf5565b848454611b77565b825550505050565b600090565b611c31611c24565b611c3c818484611bff565b505050565b5b81811015611c6057611c55600082611c29565b600181019050611c42565b5050565b601f821115611ca557611c76816119d3565b611c7f84611b5a565b81016020851015611c8e578190505b611ca2611c9a85611b5a565b830182611c41565b50505b505050565b600082821c905092915050565b6000611cc860001984600802611caa565b1980831691505092915050565b6000611ce18383611cb7565b9150826002028217905092915050565b611cfa8261186e565b67ffffffffffffffff811115611d1357611d1261123b565b5b611d1d82546119a2565b611d28828285611c64565b600060209050601f831160018114611d5b5760008415611d49578287015190505b611d538582611cd5565b865550611dbb565b601f198416611d69866119d3565b60005b82811015611d9157848901518255600182019150602085019450602081019050611d6c565b86831015611dae5784890151611daa601f891682611cb7565b8355505b6001600288020188555050505b505050505050565b6000611dce8261186e565b611dd881856118f6565b9350611de8818560208601611884565b611df18161122a565b840191505092915050565b60006020820190508181036000830152611e168184611dc3565b905092915050565b7f526174696e67206d757374206265206265747765656e203120616e6420350000600082015250565b6000611e54601e836118f6565b9150611e5f82611e1e565b602082019050919050565b60006020820190508181036000830152611e8381611e47565b9050919050565b7f4f6e6c7920726567697374657265642075736572732063616e2063616c6c207460008201527f6869732066756e6374696f6e0000000000000000000000000000000000000000602082015250565b6000611ee6602c836118f6565b9150611ef182611e8a565b604082019050919050565b60006020820190508181036000830152611f1581611ed9565b9050919050565b6000819050919050565b600060ff82169050919050565b6000611f4e611f49611f4484611f1c565b611bc9565b611f26565b9050919050565b611f5e81611f33565b82525050565b6000606082019050611f796000830186611410565b611f866020830185611f55565b611f93604083018461153d565b949350505050565b600081519050919050565b600081905092915050565b6000611fbc82611f9b565b611fc68185611fa6565b9350611fd6818560208601611884565b80840191505092915050565b6000611fee8284611fb1565b915081905092915050565b7f4661696c656420746f2063616c6c2072617465557365722066756e6374696f6e60008201527f20696e204d65726368616e74436f6e74726163745f6878000000000000000000602082015250565b60006120556037836118f6565b915061206082611ff9565b604082019050919050565b6000602082019050818103600083015261208481612048565b9050919050565b60006020820190506120a0600083018461153d565b92915050565b7f496e73756666696369656e742062616c616e6365000000000000000000000000600082015250565b60006120dc6014836118f6565b91506120e7826120a6565b602082019050919050565b6000602082019050818103600083015261210b816120cf565b9050919050565b7f4e487b7100000000000000000000000000000000000000000000000000000000600052601160045260246000fd5b600061214c82611509565b915061215783611509565b925082820390508181126000841216828213600085121516171561217e5761217d612112565b5b92915050565b7f50726f6475637420707572636861736564000000000000000000000000000000600082015250565b60006121ba6011836118f6565b91506121c582612184565b602082019050919050565b60006040820190506121e5600083018461153d565b81810360208301526121f6816121ad565b905092915050565b6000604082019050612213600083018561153d565b81810360208301526122258184611dc3565b90509392505050565b7f4f6e6c79206f776e65722063616e2063616c6c20746869732066756e6374696f60008201527f6e00000000000000000000000000000000000000000000000000000000000000602082015250565b600061228a6021836118f6565b91506122958261222e565b604082019050919050565b600060208201905081810360008301526122b98161227d565b9050919050565b60006122cb82611509565b91506122d683611509565b9250828201905082811215600083121683821260008412151617156122fe576122fd612112565b5b92915050565b60006040820190506123196000830185611513565b818103602083015261232b8184611dc3565b90509392505050565b7f4d65726368616e7420636f6e7472616374206164647265737320616c7265616460008201527f7920736574000000000000000000000000000000000000000000000000000000602082015250565b60006123906025836118f6565b915061239b82612334565b604082019050919050565b600060208201905081810360008301526123bf81612383565b905091905056fea26469706673582212209bb937ad7f97ce415190d363ff7446d1a026d9de41af50d670d176531b69b35664736f6c63430008180033","opcodes":"PUSH1 0x80 PUSH1 0x40 MSTORE CALLVALUE DUP1 ISZERO PUSH2 0x10 JUMPI PUSH1 0x0 DUP1 REVERT JUMPDEST POP PUSH2 0x2710 PUSH1 0x1 PUSH1 0x0 CALLER PUSH20 0xFFFFFFFFFFFFFFFFFFFFFFFFFFFFFFFFFFFFFFFF AND PUSH20 0xFFFFFFFFFFFFFFFFFFFFFFFFFFFFFFFFFFFFFFFF AND DUP2 MSTORE PUSH1 0x20 ADD SWAP1 DUP2 MSTORE PUSH1 0x20 ADD PUSH1 0x0 KECCAK256 DUP2 SWAP1 SSTORE POP CALLER PUSH1 0x6 PUSH1 0x0 PUSH2 0x100 EXP DUP2 SLOAD DUP2 PUSH20 0xFFFFFFFFFFFFFFFFFFFFFFFFFFFFFFFFFFFFFFFF MUL NOT AND SWAP1 DUP4 PUSH20 0xFFFFFFFFFFFFFFFFFFFFFFFFFFFFFFFFFFFFFFFF AND MUL OR SWAP1 SSTORE POP PUSH2 0x23FC DUP1 PUSH2 0xA7 PUSH1 0x0 CODECOPY PUSH1 0x0 RETURN INVALID PUSH1 0x80 PUSH1 0x40 MSTORE CALLVALUE DUP1 ISZERO PUSH2 0x10 JUMPI PUSH1 0x0 DUP1 REVERT JUMPDEST POP PUSH1 0x4 CALLDATASIZE LT PUSH2 0xF5 JUMPI PUSH1 0x0 CALLDATALOAD PUSH1 0xE0 SHR DUP1 PUSH4 0xA666F705 GT PUSH2 0x97 JUMPI DUP1 PUSH4 0xE1A9797F GT PUSH2 0x66 JUMPI DUP1 PUSH4 0xE1A9797F EQ PUSH2 0x298 JUMPI DUP1 PUSH4 0xEE22D9CE EQ PUSH2 0x2C8 JUMPI DUP1 PUSH4 0xFCB15486 EQ PUSH2 0x2E4 JUMPI DUP1 PUSH4 0xFE907D2D EQ PUSH2 0x302 JUMPI PUSH2 0xF5 JUMP JUMPDEST DUP1 PUSH4 0xA666F705 EQ PUSH2 0x224 JUMPI DUP1 PUSH4 0xC234AC9C EQ PUSH2 0x242 JUMPI DUP1 PUSH4 0xC5927679 EQ PUSH2 0x25E JUMPI DUP1 PUSH4 0xE0D4D4CA EQ PUSH2 0x27C JUMPI PUSH2 0xF5 JUMP JUMPDEST DUP1 PUSH4 0x4D49C8BF GT PUSH2 0xD3 JUMPI DUP1 PUSH4 0x4D49C8BF EQ PUSH2 0x162 JUMPI DUP1 PUSH4 0x6969B3ED EQ PUSH2 0x192 JUMPI DUP1 PUSH4 0x89392A68 EQ PUSH2 0x1C4 JUMPI DUP1 PUSH4 0x8EF47A31 EQ PUSH2 0x1F4 JUMPI PUSH2 0xF5 JUMP JUMPDEST DUP1 PUSH4 0x114805FD EQ PUSH2 0xFA JUMPI DUP1 PUSH4 0x25481BD0 EQ PUSH2 0x12A JUMPI DUP1 PUSH4 0x3931ED1E EQ PUSH2 0x146 JUMPI JUMPDEST PUSH1 0x0 DUP1 REVERT JUMPDEST PUSH2 0x114 PUSH1 0x4 DUP1 CALLDATASIZE SUB DUP2 ADD SWAP1 PUSH2 0x10F SWAP2 SWAP1 PUSH2 0x1366 JUMP JUMPDEST PUSH2 0x31E JUMP JUMPDEST PUSH1 0x40 MLOAD PUSH2 0x121 SWAP2 SWAP1 PUSH2 0x141F JUMP JUMPDEST PUSH1 0x40 MLOAD DUP1 SWAP2 SUB SWAP1 RETURN JUMPDEST PUSH2 0x144 PUSH1 0x4 DUP1 CALLDATASIZE SUB DUP2 ADD SWAP1 PUSH2 0x13F SWAP2 SWAP1 PUSH2 0x1366 JUMP JUMPDEST PUSH2 0x4A7 JUMP JUMPDEST STOP JUMPDEST PUSH2 0x160 PUSH1 0x4 DUP1 CALLDATASIZE SUB DUP2 ADD SWAP1 PUSH2 0x15B SWAP2 SWAP1 PUSH2 0x149C JUMP JUMPDEST PUSH2 0x686 JUMP JUMPDEST STOP JUMPDEST PUSH2 0x17C PUSH1 0x4 DUP1 CALLDATASIZE SUB DUP2 ADD SWAP1 PUSH2 0x177 SWAP2 SWAP1 PUSH2 0x14DC JUMP JUMPDEST PUSH2 0x92D JUMP JUMPDEST PUSH1 0x40 MLOAD PUSH2 0x189 SWAP2 SWAP1 PUSH2 0x1522 JUMP JUMPDEST PUSH1 0x40 MLOAD DUP1 SWAP2 SUB SWAP1 RETURN JUMPDEST PUSH2 0x1AC PUSH1 0x4 DUP1 CALLDATASIZE SUB DUP2 ADD SWAP1 PUSH2 0x1A7 SWAP2 SWAP1 PUSH2 0x149C JUMP JUMPDEST PUSH2 0x945 JUMP JUMPDEST PUSH1 0x40 MLOAD PUSH2 0x1BB SWAP4 SWAP3 SWAP2 SWAP1 PUSH2 0x154C JUMP JUMPDEST PUSH1 0x40 MLOAD DUP1 SWAP2 SUB SWAP1 RETURN JUMPDEST PUSH2 0x1DE PUSH1 0x4 DUP1 CALLDATASIZE SUB DUP2 ADD SWAP1 PUSH2 0x1D9 SWAP2 SWAP1 PUSH2 0x1583 JUMP JUMPDEST PUSH2 0x98C JUMP JUMPDEST PUSH1 0x40 MLOAD PUSH2 0x1EB SWAP2 SWAP1 PUSH2 0x141F JUMP JUMPDEST PUSH1 0x40 MLOAD DUP1 SWAP2 SUB SWAP1 RETURN JUMPDEST PUSH2 0x20E PUSH1 0x4 DUP1 CALLDATASIZE SUB DUP2 ADD SWAP1 PUSH2 0x209 SWAP2 SWAP1 PUSH2 0x14DC JUMP JUMPDEST PUSH2 0x9D4 JUMP JUMPDEST PUSH1 0x40 MLOAD PUSH2 0x21B SWAP2 SWAP1 PUSH2 0x15E7 JUMP JUMPDEST PUSH1 0x40 MLOAD DUP1 SWAP2 SUB SWAP1 RETURN JUMPDEST PUSH2 0x22C PUSH2 0x9F4 JUMP JUMPDEST PUSH1 0x40 MLOAD PUSH2 0x239 SWAP2 SWAP1 PUSH2 0x141F JUMP JUMPDEST PUSH1 0x40 MLOAD DUP1 SWAP2 SUB SWAP1 RETURN JUMPDEST PUSH2 0x25C PUSH1 0x4 DUP1 CALLDATASIZE SUB DUP2 ADD SWAP1 PUSH2 0x257 SWAP2 SWAP1 PUSH2 0x1602 JUMP JUMPDEST PUSH2 0xA1A JUMP JUMPDEST STOP JUMPDEST PUSH2 0x266 PUSH2 0xBED JUMP JUMPDEST PUSH1 0x40 MLOAD PUSH2 0x273 SWAP2 SWAP1 PUSH2 0x1522 JUMP JUMPDEST PUSH1 0x40 MLOAD DUP1 SWAP2 SUB SWAP1 RETURN JUMPDEST PUSH2 0x296 PUSH1 0x4 DUP1 CALLDATASIZE SUB DUP2 ADD SWAP1 PUSH2 0x291 SWAP2 SWAP1 PUSH2 0x1642 JUMP JUMPDEST PUSH2 0xC34 JUMP JUMPDEST STOP JUMPDEST PUSH2 0x2B2 PUSH1 0x4 DUP1 CALLDATASIZE SUB DUP2 ADD SWAP1 PUSH2 0x2AD SWAP2 SWAP1 PUSH2 0x1366 JUMP JUMPDEST PUSH2 0xCDB JUMP JUMPDEST PUSH1 0x40 MLOAD PUSH2 0x2BF SWAP2 SWAP1 PUSH2 0x15E7 JUMP JUMPDEST PUSH1 0x40 MLOAD DUP1 SWAP2 SUB SWAP1 RETURN JUMPDEST PUSH2 0x2E2 PUSH1 0x4 DUP1 CALLDATASIZE SUB DUP2 ADD SWAP1 PUSH2 0x2DD SWAP2 SWAP1 PUSH2 0x16DD JUMP JUMPDEST PUSH2 0xE24 JUMP JUMPDEST STOP JUMPDEST PUSH2 0x2EC PUSH2 0xFED JUMP JUMPDEST PUSH1 0x40 MLOAD PUSH2 0x2F9 SWAP2 SWAP1 PUSH2 0x184C JUMP JUMPDEST PUSH1 0x40 MLOAD DUP1 SWAP2 SUB SWAP1 RETURN JUMPDEST PUSH2 0x31C PUSH1 0x4 DUP1 CALLDATASIZE SUB DUP2 ADD SWAP1 PUSH2 0x317 SWAP2 SWAP1 PUSH2 0x14DC JUMP JUMPDEST PUSH2 0x10A7 JUMP JUMPDEST STOP JUMPDEST PUSH1 0x0 DUP1 PUSH1 0x3 DUP5 PUSH1 0x40 MLOAD PUSH2 0x331 SWAP2 SWAP1 PUSH2 0x18DF JUMP JUMPDEST SWAP1 DUP2 MSTORE PUSH1 0x20 ADD PUSH1 0x40 MLOAD DUP1 SWAP2 SUB SWAP1 KECCAK256 PUSH1 0x0 SWAP1 SLOAD SWAP1 PUSH2 0x100 EXP SWAP1 DIV PUSH20 0xFFFFFFFFFFFFFFFFFFFFFFFFFFFFFFFFFFFFFFFF AND SWAP1 POP PUSH1 0x0 PUSH20 0xFFFFFFFFFFFFFFFFFFFFFFFFFFFFFFFFFFFFFFFF AND DUP2 PUSH20 0xFFFFFFFFFFFFFFFFFFFFFFFFFFFFFFFFFFFFFFFF AND SUB PUSH2 0x3D1 JUMPI PUSH1 0x40 MLOAD PUSH32 0x8C379A000000000000000000000000000000000000000000000000000000000 DUP2 MSTORE PUSH1 0x4 ADD PUSH2 0x3C8 SWAP1 PUSH2 0x1953 JUMP JUMPDEST PUSH1 0x40 MLOAD DUP1 SWAP2 SUB SWAP1 REVERT JUMPDEST DUP3 PUSH1 0x40 MLOAD PUSH1 0x20 ADD PUSH2 0x3E2 SWAP2 SWAP1 PUSH2 0x18DF JUMP JUMPDEST PUSH1 0x40 MLOAD PUSH1 0x20 DUP2 DUP4 SUB SUB DUP2 MSTORE SWAP1 PUSH1 0x40 MSTORE DUP1 MLOAD SWAP1 PUSH1 0x20 ADD KECCAK256 PUSH1 0x4 PUSH1 0x0 DUP4 PUSH20 0xFFFFFFFFFFFFFFFFFFFFFFFFFFFFFFFFFFFFFFFF AND PUSH20 0xFFFFFFFFFFFFFFFFFFFFFFFFFFFFFFFFFFFFFFFF AND DUP2 MSTORE PUSH1 0x20 ADD SWAP1 DUP2 MSTORE PUSH1 0x20 ADD PUSH1 0x0 KECCAK256 PUSH1 0x40 MLOAD PUSH1 0x20 ADD PUSH2 0x447 SWAP2 SWAP1 PUSH2 0x1A6B JUMP JUMPDEST PUSH1 0x40 MLOAD PUSH1 0x20 DUP2 DUP4 SUB SUB DUP2 MSTORE SWAP1 PUSH1 0x40 MSTORE DUP1 MLOAD SWAP1 PUSH1 0x20 ADD KECCAK256 EQ PUSH2 0x49D JUMPI PUSH1 0x40 MLOAD PUSH32 0x8C379A000000000000000000000000000000000000000000000000000000000 DUP2 MSTORE PUSH1 0x4 ADD PUSH2 0x494 SWAP1 PUSH2 0x1ACE JUMP JUMPDEST PUSH1 0x40 MLOAD DUP1 SWAP2 SUB SWAP1 REVERT JUMPDEST DUP1 SWAP2 POP POP SWAP3 SWAP2 POP POP JUMP JUMPDEST PUSH1 0x0 DUP1 CALLER PUSH20 0xFFFFFFFFFFFFFFFFFFFFFFFFFFFFFFFFFFFFFFFF AND PUSH20 0xFFFFFFFFFFFFFFFFFFFFFFFFFFFFFFFFFFFFFFFF AND DUP2 MSTORE PUSH1 0x20 ADD SWAP1 DUP2 MSTORE PUSH1 0x20 ADD PUSH1 0x0 KECCAK256 PUSH1 0x0 SWAP1 SLOAD SWAP1 PUSH2 0x100 EXP SWAP1 DIV PUSH1 0xFF AND ISZERO PUSH2 0x533 JUMPI PUSH1 0x40 MLOAD PUSH32 0x8C379A000000000000000000000000000000000000000000000000000000000 DUP2 MSTORE PUSH1 0x4 ADD PUSH2 0x52A SWAP1 PUSH2 0x1B3A JUMP JUMPDEST PUSH1 0x40 MLOAD DUP1 SWAP2 SUB SWAP1 REVERT JUMPDEST PUSH1 0x1 PUSH1 0x0 DUP1 CALLER PUSH20 0xFFFFFFFFFFFFFFFFFFFFFFFFFFFFFFFFFFFFFFFF AND PUSH20 0xFFFFFFFFFFFFFFFFFFFFFFFFFFFFFFFFFFFFFFFF AND DUP2 MSTORE PUSH1 0x20 ADD SWAP1 DUP2 MSTORE PUSH1 0x20 ADD PUSH1 0x0 KECCAK256 PUSH1 0x0 PUSH2 0x100 EXP DUP2 SLOAD DUP2 PUSH1 0xFF MUL NOT AND SWAP1 DUP4 ISZERO ISZERO MUL OR SWAP1 SSTORE POP CALLER PUSH1 0x3 DUP4 PUSH1 0x40 MLOAD PUSH2 0x59B SWAP2 SWAP1 PUSH2 0x18DF JUMP JUMPDEST SWAP1 DUP2 MSTORE PUSH1 0x20 ADD PUSH1 0x40 MLOAD DUP1 SWAP2 SUB SWAP1 KECCAK256 PUSH1 0x0 PUSH2 0x100 EXP DUP2 SLOAD DUP2 PUSH20 0xFFFFFFFFFFFFFFFFFFFFFFFFFFFFFFFFFFFFFFFF MUL NOT AND SWAP1 DUP4 PUSH20 0xFFFFFFFFFFFFFFFFFFFFFFFFFFFFFFFFFFFFFFFF AND MUL OR SWAP1 SSTORE POP DUP1 PUSH1 0x4 PUSH1 0x0 CALLER PUSH20 0xFFFFFFFFFFFFFFFFFFFFFFFFFFFFFFFFFFFFFFFF AND PUSH20 0xFFFFFFFFFFFFFFFFFFFFFFFFFFFFFFFFFFFFFFFF AND DUP2 MSTORE PUSH1 0x20 ADD SWAP1 DUP2 MSTORE PUSH1 0x20 ADD PUSH1 0x0 KECCAK256 SWAP1 DUP2 PUSH2 0x633 SWAP2 SWAP1 PUSH2 0x1CF1 JUMP JUMPDEST POP CALLER PUSH20 0xFFFFFFFFFFFFFFFFFFFFFFFFFFFFFFFFFFFFFFFF AND PUSH32 0xBCD9EE4B7A821E24C5294BA8C6E0879E94AC7AF1CCF278948A42804D8BE1CEBF DUP4 PUSH1 0x40 MLOAD PUSH2 0x67A SWAP2 SWAP1 PUSH2 0x1DFC JUMP JUMPDEST PUSH1 0x40 MLOAD DUP1 SWAP2 SUB SWAP1 LOG2 POP POP JUMP JUMPDEST PUSH1 0x1 DUP2 LT ISZERO DUP1 ISZERO PUSH2 0x698 JUMPI POP PUSH1 0x5 DUP2 GT ISZERO JUMPDEST PUSH2 0x6D7 JUMPI PUSH1 0x40 MLOAD PUSH32 0x8C379A000000000000000000000000000000000000000000000000000000000 DUP2 MSTORE PUSH1 0x4 ADD PUSH2 0x6CE SWAP1 PUSH2 0x1E6A JUMP JUMPDEST PUSH1 0x40 MLOAD DUP1 SWAP2 SUB SWAP1 REVERT JUMPDEST PUSH1 0x0 DUP1 CALLER PUSH20 0xFFFFFFFFFFFFFFFFFFFFFFFFFFFFFFFFFFFFFFFF AND PUSH20 0xFFFFFFFFFFFFFFFFFFFFFFFFFFFFFFFFFFFFFFFF AND DUP2 MSTORE PUSH1 0x20 ADD SWAP1 DUP2 MSTORE PUSH1 0x20 ADD PUSH1 0x0 KECCAK256 PUSH1 0x0 SWAP1 SLOAD SWAP1 PUSH2 0x100 EXP SWAP1 DIV PUSH1 0xFF AND PUSH2 0x762 JUMPI PUSH1 0x40 MLOAD PUSH32 0x8C379A000000000000000000000000000000000000000000000000000000000 DUP2 MSTORE PUSH1 0x4 ADD PUSH2 0x759 SWAP1 PUSH2 0x1EFC JUMP JUMPDEST PUSH1 0x40 MLOAD DUP1 SWAP2 SUB SWAP1 REVERT JUMPDEST PUSH1 0x0 PUSH1 0x5 PUSH1 0x0 SWAP1 SLOAD SWAP1 PUSH2 0x100 EXP SWAP1 DIV PUSH20 0xFFFFFFFFFFFFFFFFFFFFFFFFFFFFFFFFFFFFFFFF AND PUSH20 0xFFFFFFFFFFFFFFFFFFFFFFFFFFFFFFFFFFFFFFFF AND DUP4 PUSH1 0x0 DUP5 PUSH1 0x40 MLOAD PUSH1 0x24 ADD PUSH2 0x7B3 SWAP4 SWAP3 SWAP2 SWAP1 PUSH2 0x1F64 JUMP JUMPDEST PUSH1 0x40 MLOAD PUSH1 0x20 DUP2 DUP4 SUB SUB DUP2 MSTORE SWAP1 PUSH1 0x40 MSTORE PUSH32 0x14BE652600000000000000000000000000000000000000000000000000000000 PUSH28 0xFFFFFFFFFFFFFFFFFFFFFFFFFFFFFFFFFFFFFFFFFFFFFFFFFFFFFFFF NOT AND PUSH1 0x20 DUP3 ADD DUP1 MLOAD PUSH28 0xFFFFFFFFFFFFFFFFFFFFFFFFFFFFFFFFFFFFFFFFFFFFFFFFFFFFFFFF DUP4 DUP2 DUP4 AND OR DUP4 MSTORE POP POP POP POP PUSH1 0x40 MLOAD PUSH2 0x83D SWAP2 SWAP1 PUSH2 0x1FE2 JUMP JUMPDEST PUSH1 0x0 PUSH1 0x40 MLOAD DUP1 DUP4 SUB DUP2 PUSH1 0x0 DUP7 GAS CALL SWAP2 POP POP RETURNDATASIZE DUP1 PUSH1 0x0 DUP2 EQ PUSH2 0x87A JUMPI PUSH1 0x40 MLOAD SWAP2 POP PUSH1 0x1F NOT PUSH1 0x3F RETURNDATASIZE ADD AND DUP3 ADD PUSH1 0x40 MSTORE RETURNDATASIZE DUP3 MSTORE RETURNDATASIZE PUSH1 0x0 PUSH1 0x20 DUP5 ADD RETURNDATACOPY PUSH2 0x87F JUMP JUMPDEST PUSH1 0x60 SWAP2 POP JUMPDEST POP POP SWAP1 POP DUP1 PUSH2 0x8C3 JUMPI PUSH1 0x40 MLOAD PUSH32 0x8C379A000000000000000000000000000000000000000000000000000000000 DUP2 MSTORE PUSH1 0x4 ADD PUSH2 0x8BA SWAP1 PUSH2 0x206B JUMP JUMPDEST PUSH1 0x40 MLOAD DUP1 SWAP2 SUB SWAP1 REVERT JUMPDEST CALLER PUSH20 0xFFFFFFFFFFFFFFFFFFFFFFFFFFFFFFFFFFFFFFFF AND DUP4 PUSH20 0xFFFFFFFFFFFFFFFFFFFFFFFFFFFFFFFFFFFFFFFF AND PUSH32 0x56D02BE0EFEE267C8D00B1D33FCB63529028C8CE5B517F3ABD9FB1DEBE4947F3 DUP5 PUSH1 0x40 MLOAD PUSH2 0x920 SWAP2 SWAP1 PUSH2 0x208B JUMP JUMPDEST PUSH1 0x40 MLOAD DUP1 SWAP2 SUB SWAP1 LOG3 POP POP POP JUMP JUMPDEST PUSH1 0x1 PUSH1 0x20 MSTORE DUP1 PUSH1 0x0 MSTORE PUSH1 0x40 PUSH1 0x0 KECCAK256 PUSH1 0x0 SWAP2 POP SWAP1 POP SLOAD DUP2 JUMP JUMPDEST PUSH1 0x2 PUSH1 0x20 MSTORE DUP2 PUSH1 0x0 MSTORE PUSH1 0x40 PUSH1 0x0 KECCAK256 DUP2 DUP2 SLOAD DUP2 LT PUSH2 0x961 JUMPI PUSH1 0x0 DUP1 REVERT JUMPDEST SWAP1 PUSH1 0x0 MSTORE PUSH1 0x20 PUSH1 0x0 KECCAK256 SWAP1 PUSH1 0x3 MUL ADD PUSH1 0x0 SWAP2 POP SWAP2 POP POP DUP1 PUSH1 0x0 ADD SLOAD SWAP1 DUP1 PUSH1 0x1 ADD SLOAD SWAP1 DUP1 PUSH1 0x2 ADD SLOAD SWAP1 POP DUP4 JUMP JUMPDEST PUSH1 0x0 PUSH1 0x3 DUP3 PUSH1 0x40 MLOAD PUSH2 0x99E SWAP2 SWAP1 PUSH2 0x18DF JUMP JUMPDEST SWAP1 DUP2 MSTORE PUSH1 0x20 ADD PUSH1 0x40 MLOAD DUP1 SWAP2 SUB SWAP1 KECCAK256 PUSH1 0x0 SWAP1 SLOAD SWAP1 PUSH2 0x100 EXP SWAP1 DIV PUSH20 0xFFFFFFFFFFFFFFFFFFFFFFFFFFFFFFFFFFFFFFFF AND SWAP1 POP SWAP2 SWAP1 POP JUMP JUMPDEST PUSH1 0x0 PUSH1 0x20 MSTORE DUP1 PUSH1 0x0 MSTORE PUSH1 0x40 PUSH1 0x0 KECCAK256 PUSH1 0x0 SWAP2 POP SLOAD SWAP1 PUSH2 0x100 EXP SWAP1 DIV PUSH1 0xFF AND DUP2 JUMP JUMPDEST PUSH1 0x5 PUSH1 0x0 SWAP1 SLOAD SWAP1 PUSH2 0x100 EXP SWAP1 DIV PUSH20 0xFFFFFFFFFFFFFFFFFFFFFFFFFFFFFFFFFFFFFFFF AND DUP2 JUMP JUMPDEST DUP1 PUSH1 0x1 PUSH1 0x0 CALLER PUSH20 0xFFFFFFFFFFFFFFFFFFFFFFFFFFFFFFFFFFFFFFFF AND PUSH20 0xFFFFFFFFFFFFFFFFFFFFFFFFFFFFFFFFFFFFFFFF AND DUP2 MSTORE PUSH1 0x20 ADD SWAP1 DUP2 MSTORE PUSH1 0x20 ADD PUSH1 0x0 KECCAK256 SLOAD SLT ISZERO PUSH2 0xA9C JUMPI PUSH1 0x40 MLOAD PUSH32 0x8C379A000000000000000000000000000000000000000000000000000000000 DUP2 MSTORE PUSH1 0x4 ADD PUSH2 0xA93 SWAP1 PUSH2 0x20F2 JUMP JUMPDEST PUSH1 0x40 MLOAD DUP1 SWAP2 SUB SWAP1 REVERT JUMPDEST DUP1 PUSH1 0x1 PUSH1 0x0 CALLER PUSH20 0xFFFFFFFFFFFFFFFFFFFFFFFFFFFFFFFFFFFFFFFF AND PUSH20 0xFFFFFFFFFFFFFFFFFFFFFFFFFFFFFFFFFFFFFFFF AND DUP2 MSTORE PUSH1 0x20 ADD SWAP1 DUP2 MSTORE PUSH1 0x20 ADD PUSH1 0x0 KECCAK256 PUSH1 0x0 DUP3 DUP3 SLOAD PUSH2 0xAEB SWAP2 SWAP1 PUSH2 0x2141 JUMP JUMPDEST SWAP3 POP POP DUP2 SWAP1 SSTORE POP PUSH1 0x0 PUSH1 0x40 MLOAD DUP1 PUSH1 0x60 ADD PUSH1 0x40 MSTORE DUP1 DUP5 DUP2 MSTORE PUSH1 0x20 ADD DUP4 DUP2 MSTORE PUSH1 0x20 ADD TIMESTAMP DUP2 MSTORE POP SWAP1 POP PUSH1 0x2 PUSH1 0x0 CALLER PUSH20 0xFFFFFFFFFFFFFFFFFFFFFFFFFFFFFFFFFFFFFFFF AND PUSH20 0xFFFFFFFFFFFFFFFFFFFFFFFFFFFFFFFFFFFFFFFF AND DUP2 MSTORE PUSH1 0x20 ADD SWAP1 DUP2 MSTORE PUSH1 0x20 ADD PUSH1 0x0 KECCAK256 DUP2 SWAP1 DUP1 PUSH1 0x1 DUP2 SLOAD ADD DUP1 DUP3 SSTORE DUP1 SWAP2 POP POP PUSH1 0x1 SWAP1 SUB SWAP1 PUSH1 0x0 MSTORE PUSH1 0x20 PUSH1 0x0 KECCAK256 SWAP1 PUSH1 0x3 MUL ADD PUSH1 0x0 SWAP1 SWAP2 SWAP1 SWAP2 SWAP1 SWAP2 POP PUSH1 0x0 DUP3 ADD MLOAD DUP2 PUSH1 0x0 ADD SSTORE PUSH1 0x20 DUP3 ADD MLOAD DUP2 PUSH1 0x1 ADD SSTORE PUSH1 0x40 DUP3 ADD MLOAD DUP2 PUSH1 0x2 ADD SSTORE POP POP CALLER PUSH20 0xFFFFFFFFFFFFFFFFFFFFFFFFFFFFFFFFFFFFFFFF AND PUSH32 0xF6AF08F00D4FC13A2C8F9CBB9142F3699C437DFB4A1FA364406A0A00A4F20248 DUP4 PUSH1 0x40 MLOAD PUSH2 0xBE0 SWAP2 SWAP1 PUSH2 0x21D0 JUMP JUMPDEST PUSH1 0x40 MLOAD DUP1 SWAP2 SUB SWAP1 LOG2 POP POP POP JUMP JUMPDEST PUSH1 0x0 PUSH1 0x1 PUSH1 0x0 CALLER PUSH20 0xFFFFFFFFFFFFFFFFFFFFFFFFFFFFFFFFFFFFFFFF AND PUSH20 0xFFFFFFFFFFFFFFFFFFFFFFFFFFFFFFFFFFFFFFFF AND DUP2 MSTORE PUSH1 0x20 ADD SWAP1 DUP2 MSTORE PUSH1 0x20 ADD PUSH1 0x0 KECCAK256 SLOAD SWAP1 POP SWAP1 JUMP JUMPDEST PUSH1 0x1 DUP3 LT ISZERO DUP1 ISZERO PUSH2 0xC46 JUMPI POP PUSH1 0x5 DUP3 GT ISZERO JUMPDEST PUSH2 0xC85 JUMPI PUSH1 0x40 MLOAD PUSH32 0x8C379A000000000000000000000000000000000000000000000000000000000 DUP2 MSTORE PUSH1 0x4 ADD PUSH2 0xC7C SWAP1 PUSH2 0x1E6A JUMP JUMPDEST PUSH1 0x40 MLOAD DUP1 SWAP2 SUB SWAP1 REVERT JUMPDEST CALLER PUSH20 0xFFFFFFFFFFFFFFFFFFFFFFFFFFFFFFFFFFFFFFFF AND DUP4 PUSH32 0x26EF10767F94EC1A55A76C37C915B04C1C548DB6620A9F042CA98807C4DE75C3 DUP5 DUP5 PUSH1 0x40 MLOAD PUSH2 0xCCE SWAP3 SWAP2 SWAP1 PUSH2 0x21FE JUMP JUMPDEST PUSH1 0x40 MLOAD DUP1 SWAP2 SUB SWAP1 LOG3 POP POP POP JUMP JUMPDEST PUSH1 0x0 DUP1 PUSH1 0x3 DUP5 PUSH1 0x40 MLOAD PUSH2 0xCEE SWAP2 SWAP1 PUSH2 0x18DF JUMP JUMPDEST SWAP1 DUP2 MSTORE PUSH1 0x20 ADD PUSH1 0x40 MLOAD DUP1 SWAP2 SUB SWAP1 KECCAK256 PUSH1 0x0 SWAP1 SLOAD SWAP1 PUSH2 0x100 EXP SWAP1 DIV PUSH20 0xFFFFFFFFFFFFFFFFFFFFFFFFFFFFFFFFFFFFFFFF AND SWAP1 POP PUSH1 0x0 PUSH20 0xFFFFFFFFFFFFFFFFFFFFFFFFFFFFFFFFFFFFFFFF AND DUP2 PUSH20 0xFFFFFFFFFFFFFFFFFFFFFFFFFFFFFFFFFFFFFFFF AND SUB PUSH2 0xD8E JUMPI PUSH1 0x40 MLOAD PUSH32 0x8C379A000000000000000000000000000000000000000000000000000000000 DUP2 MSTORE PUSH1 0x4 ADD PUSH2 0xD85 SWAP1 PUSH2 0x1953 JUMP JUMPDEST PUSH1 0x40 MLOAD DUP1 SWAP2 SUB SWAP1 REVERT JUMPDEST DUP3 PUSH1 0x40 MLOAD PUSH1 0x20 ADD PUSH2 0xD9F SWAP2 SWAP1 PUSH2 0x18DF JUMP JUMPDEST PUSH1 0x40 MLOAD PUSH1 0x20 DUP2 DUP4 SUB SUB DUP2 MSTORE SWAP1 PUSH1 0x40 MSTORE DUP1 MLOAD SWAP1 PUSH1 0x20 ADD KECCAK256 PUSH1 0x4 PUSH1 0x0 DUP4 PUSH20 0xFFFFFFFFFFFFFFFFFFFFFFFFFFFFFFFFFFFFFFFF AND PUSH20 0xFFFFFFFFFFFFFFFFFFFFFFFFFFFFFFFFFFFFFFFF AND DUP2 MSTORE PUSH1 0x20 ADD SWAP1 DUP2 MSTORE PUSH1 0x20 ADD PUSH1 0x0 KECCAK256 PUSH1 0x40 MLOAD PUSH1 0x20 ADD PUSH2 0xE04 SWAP2 SWAP1 PUSH2 0x1A6B JUMP JUMPDEST PUSH1 0x40 MLOAD PUSH1 0x20 DUP2 DUP4 SUB SUB DUP2 MSTORE SWAP1 PUSH1 0x40 MSTORE DUP1 MLOAD SWAP1 PUSH1 0x20 ADD KECCAK256 EQ SWAP2 POP POP SWAP3 SWAP2 POP POP JUMP JUMPDEST PUSH1 0x6 PUSH1 0x0 SWAP1 SLOAD SWAP1 PUSH2 0x100 EXP SWAP1 DIV PUSH20 0xFFFFFFFFFFFFFFFFFFFFFFFFFFFFFFFFFFFFFFFF AND PUSH20 0xFFFFFFFFFFFFFFFFFFFFFFFFFFFFFFFFFFFFFFFF AND CALLER PUSH20 0xFFFFFFFFFFFFFFFFFFFFFFFFFFFFFFFFFFFFFFFF AND EQ PUSH2 0xEB4 JUMPI PUSH1 0x40 MLOAD PUSH32 0x8C379A000000000000000000000000000000000000000000000000000000000 DUP2 MSTORE PUSH1 0x4 ADD PUSH2 0xEAB SWAP1 PUSH2 0x22A0 JUMP JUMPDEST PUSH1 0x40 MLOAD DUP1 SWAP2 SUB SWAP1 REVERT JUMPDEST PUSH1 0x0 DUP3 PUSH1 0x1 PUSH1 0x0 DUP7 PUSH20 0xFFFFFFFFFFFFFFFFFFFFFFFFFFFFFFFFFFFFFFFF AND PUSH20 0xFFFFFFFFFFFFFFFFFFFFFFFFFFFFFFFFFFFFFFFF AND DUP2 MSTORE PUSH1 0x20 ADD SWAP1 DUP2 MSTORE PUSH1 0x20 ADD PUSH1 0x0 KECCAK256 SLOAD PUSH2 0xF01 SWAP2 SWAP1 PUSH2 0x22C0 JUMP JUMPDEST SLT ISZERO PUSH2 0xF42 JUMPI PUSH1 0x40 MLOAD PUSH32 0x8C379A000000000000000000000000000000000000000000000000000000000 DUP2 MSTORE PUSH1 0x4 ADD PUSH2 0xF39 SWAP1 PUSH2 0x20F2 JUMP JUMPDEST PUSH1 0x40 MLOAD DUP1 SWAP2 SUB SWAP1 REVERT JUMPDEST DUP2 PUSH1 0x1 PUSH1 0x0 DUP6 PUSH20 0xFFFFFFFFFFFFFFFFFFFFFFFFFFFFFFFFFFFFFFFF AND PUSH20 0xFFFFFFFFFFFFFFFFFFFFFFFFFFFFFFFFFFFFFFFF AND DUP2 MSTORE PUSH1 0x20 ADD SWAP1 DUP2 MSTORE PUSH1 0x20 ADD PUSH1 0x0 KECCAK256 PUSH1 0x0 DUP3 DUP3 SLOAD PUSH2 0xF91 SWAP2 SWAP1 PUSH2 0x22C0 JUMP JUMPDEST SWAP3 POP POP DUP2 SWAP1 SSTORE POP DUP3 PUSH20 0xFFFFFFFFFFFFFFFFFFFFFFFFFFFFFFFFFFFFFFFF AND PUSH32 0x85B889929CBB1A1380AFD926B937C322436603064BF95637DA4256393904C36C DUP4 DUP4 PUSH1 0x40 MLOAD PUSH2 0xFE0 SWAP3 SWAP2 SWAP1 PUSH2 0x2304 JUMP JUMPDEST PUSH1 0x40 MLOAD DUP1 SWAP2 SUB SWAP1 LOG2 POP POP POP JUMP JUMPDEST PUSH1 0x60 PUSH1 0x2 PUSH1 0x0 CALLER PUSH20 0xFFFFFFFFFFFFFFFFFFFFFFFFFFFFFFFFFFFFFFFF AND PUSH20 0xFFFFFFFFFFFFFFFFFFFFFFFFFFFFFFFFFFFFFFFF AND DUP2 MSTORE PUSH1 0x20 ADD SWAP1 DUP2 MSTORE PUSH1 0x20 ADD PUSH1 0x0 KECCAK256 DUP1 SLOAD DUP1 PUSH1 0x20 MUL PUSH1 0x20 ADD PUSH1 0x40 MLOAD SWAP1 DUP2 ADD PUSH1 0x40 MSTORE DUP1 SWAP3 SWAP2 SWAP1 DUP2 DUP2 MSTORE PUSH1 0x20 ADD PUSH1 0x0 SWAP1 JUMPDEST DUP3 DUP3 LT ISZERO PUSH2 0x109E JUMPI DUP4 DUP3 SWAP1 PUSH1 0x0 MSTORE PUSH1 0x20 PUSH1 0x0 KECCAK256 SWAP1 PUSH1 0x3 MUL ADD PUSH1 0x40 MLOAD DUP1 PUSH1 0x60 ADD PUSH1 0x40 MSTORE SWAP1 DUP2 PUSH1 0x0 DUP3 ADD SLOAD DUP2 MSTORE PUSH1 0x20 ADD PUSH1 0x1 DUP3 ADD SLOAD DUP2 MSTORE PUSH1 0x20 ADD PUSH1 0x2 DUP3 ADD SLOAD DUP2 MSTORE POP POP DUP2 MSTORE PUSH1 0x20 ADD SWAP1 PUSH1 0x1 ADD SWAP1 PUSH2 0x104E JUMP JUMPDEST POP POP POP POP SWAP1 POP SWAP1 JUMP JUMPDEST PUSH1 0x0 PUSH20 0xFFFFFFFFFFFFFFFFFFFFFFFFFFFFFFFFFFFFFFFF AND PUSH1 0x5 PUSH1 0x0 SWAP1 SLOAD SWAP1 PUSH2 0x100 EXP SWAP1 DIV PUSH20 0xFFFFFFFFFFFFFFFFFFFFFFFFFFFFFFFFFFFFFFFF AND PUSH20 0xFFFFFFFFFFFFFFFFFFFFFFFFFFFFFFFFFFFFFFFF AND EQ PUSH2 0x1138 JUMPI PUSH1 0x40 MLOAD PUSH32 0x8C379A000000000000000000000000000000000000000000000000000000000 DUP2 MSTORE PUSH1 0x4 ADD PUSH2 0x112F SWAP1 PUSH2 0x23A6 JUMP JUMPDEST PUSH1 0x40 MLOAD DUP1 SWAP2 SUB SWAP1 REVERT JUMPDEST PUSH1 0x6 PUSH1 0x0 SWAP1 SLOAD SWAP1 PUSH2 0x100 EXP SWAP1 DIV PUSH20 0xFFFFFFFFFFFFFFFFFFFFFFFFFFFFFFFFFFFFFFFF AND PUSH20 0xFFFFFFFFFFFFFFFFFFFFFFFFFFFFFFFFFFFFFFFF AND CALLER PUSH20 0xFFFFFFFFFFFFFFFFFFFFFFFFFFFFFFFFFFFFFFFF AND EQ PUSH2 0x11C8 JUMPI PUSH1 0x40 MLOAD PUSH32 0x8C379A000000000000000000000000000000000000000000000000000000000 DUP2 MSTORE PUSH1 0x4 ADD PUSH2 0x11BF SWAP1 PUSH2 0x22A0 JUMP JUMPDEST PUSH1 0x40 MLOAD DUP1 SWAP2 SUB SWAP1 REVERT JUMPDEST DUP1 PUSH1 0x5 PUSH1 0x0 PUSH2 0x100 EXP DUP2 SLOAD DUP2 PUSH20 0xFFFFFFFFFFFFFFFFFFFFFFFFFFFFFFFFFFFFFFFF MUL NOT AND SWAP1 DUP4 PUSH20 0xFFFFFFFFFFFFFFFFFFFFFFFFFFFFFFFFFFFFFFFF AND MUL OR SWAP1 SSTORE POP POP JUMP JUMPDEST PUSH1 0x0 PUSH1 0x40 MLOAD SWAP1 POP SWAP1 JUMP JUMPDEST PUSH1 0x0 DUP1 REVERT JUMPDEST PUSH1 0x0 DUP1 REVERT JUMPDEST PUSH1 0x0 DUP1 REVERT JUMPDEST PUSH1 0x0 DUP1 REVERT JUMPDEST PUSH1 0x0 PUSH1 0x1F NOT PUSH1 0x1F DUP4 ADD AND SWAP1 POP SWAP2 SWAP1 POP JUMP JUMPDEST PUSH32 0x4E487B7100000000000000000000000000000000000000000000000000000000 PUSH1 0x0 MSTORE PUSH1 0x41 PUSH1 0x4 MSTORE PUSH1 0x24 PUSH1 0x0 REVERT JUMPDEST PUSH2 0x1273 DUP3 PUSH2 0x122A JUMP JUMPDEST DUP2 ADD DUP2 DUP2 LT PUSH8 0xFFFFFFFFFFFFFFFF DUP3 GT OR ISZERO PUSH2 0x1292 JUMPI PUSH2 0x1291 PUSH2 0x123B JUMP JUMPDEST JUMPDEST DUP1 PUSH1 0x40 MSTORE POP POP POP JUMP JUMPDEST PUSH1 0x0 PUSH2 0x12A5 PUSH2 0x120C JUMP JUMPDEST SWAP1 POP PUSH2 0x12B1 DUP3 DUP3 PUSH2 0x126A JUMP JUMPDEST SWAP2 SWAP1 POP JUMP JUMPDEST PUSH1 0x0 PUSH8 0xFFFFFFFFFFFFFFFF DUP3 GT ISZERO PUSH2 0x12D1 JUMPI PUSH2 0x12D0 PUSH2 0x123B JUMP JUMPDEST JUMPDEST PUSH2 0x12DA DUP3 PUSH2 0x122A JUMP JUMPDEST SWAP1 POP PUSH1 0x20 DUP2 ADD SWAP1 POP SWAP2 SWAP1 POP JUMP JUMPDEST DUP3 DUP2 DUP4 CALLDATACOPY PUSH1 0x0 DUP4 DUP4 ADD MSTORE POP POP POP JUMP JUMPDEST PUSH1 0x0 PUSH2 0x1309 PUSH2 0x1304 DUP5 PUSH2 0x12B6 JUMP JUMPDEST PUSH2 0x129B JUMP JUMPDEST SWAP1 POP DUP3 DUP2 MSTORE PUSH1 0x20 DUP2 ADD DUP5 DUP5 DUP5 ADD GT ISZERO PUSH2 0x1325 JUMPI PUSH2 0x1324 PUSH2 0x1225 JUMP JUMPDEST JUMPDEST PUSH2 0x1330 DUP5 DUP3 DUP6 PUSH2 0x12E7 JUMP JUMPDEST POP SWAP4 SWAP3 POP POP POP JUMP JUMPDEST PUSH1 0x0 DUP3 PUSH1 0x1F DUP4 ADD SLT PUSH2 0x134D JUMPI PUSH2 0x134C PUSH2 0x1220 JUMP JUMPDEST JUMPDEST DUP2 CALLDATALOAD PUSH2 0x135D DUP5 DUP3 PUSH1 0x20 DUP7 ADD PUSH2 0x12F6 JUMP JUMPDEST SWAP2 POP POP SWAP3 SWAP2 POP POP JUMP JUMPDEST PUSH1 0x0 DUP1 PUSH1 0x40 DUP4 DUP6 SUB SLT ISZERO PUSH2 0x137D JUMPI PUSH2 0x137C PUSH2 0x1216 JUMP JUMPDEST JUMPDEST PUSH1 0x0 DUP4 ADD CALLDATALOAD PUSH8 0xFFFFFFFFFFFFFFFF DUP2 GT ISZERO PUSH2 0x139B JUMPI PUSH2 0x139A PUSH2 0x121B JUMP JUMPDEST JUMPDEST PUSH2 0x13A7 DUP6 DUP3 DUP7 ADD PUSH2 0x1338 JUMP JUMPDEST SWAP3 POP POP PUSH1 0x20 DUP4 ADD CALLDATALOAD PUSH8 0xFFFFFFFFFFFFFFFF DUP2 GT ISZERO PUSH2 0x13C8 JUMPI PUSH2 0x13C7 PUSH2 0x121B JUMP JUMPDEST JUMPDEST PUSH2 0x13D4 DUP6 DUP3 DUP7 ADD PUSH2 0x1338 JUMP JUMPDEST SWAP2 POP POP SWAP3 POP SWAP3 SWAP1 POP JUMP JUMPDEST PUSH1 0x0 PUSH20 0xFFFFFFFFFFFFFFFFFFFFFFFFFFFFFFFFFFFFFFFF DUP3 AND SWAP1 POP SWAP2 SWAP1 POP JUMP JUMPDEST PUSH1 0x0 PUSH2 0x1409 DUP3 PUSH2 0x13DE JUMP JUMPDEST SWAP1 POP SWAP2 SWAP1 POP JUMP JUMPDEST PUSH2 0x1419 DUP2 PUSH2 0x13FE JUMP JUMPDEST DUP3 MSTORE POP POP JUMP JUMPDEST PUSH1 0x0 PUSH1 0x20 DUP3 ADD SWAP1 POP PUSH2 0x1434 PUSH1 0x0 DUP4 ADD DUP5 PUSH2 0x1410 JUMP JUMPDEST SWAP3 SWAP2 POP POP JUMP JUMPDEST PUSH2 0x1443 DUP2 PUSH2 0x13FE JUMP JUMPDEST DUP2 EQ PUSH2 0x144E JUMPI PUSH1 0x0 DUP1 REVERT JUMPDEST POP JUMP JUMPDEST PUSH1 0x0 DUP2 CALLDATALOAD SWAP1 POP PUSH2 0x1460 DUP2 PUSH2 0x143A JUMP JUMPDEST SWAP3 SWAP2 POP POP JUMP JUMPDEST PUSH1 0x0 DUP2 SWAP1 POP SWAP2 SWAP1 POP JUMP JUMPDEST PUSH2 0x1479 DUP2 PUSH2 0x1466 JUMP JUMPDEST DUP2 EQ PUSH2 0x1484 JUMPI PUSH1 0x0 DUP1 REVERT JUMPDEST POP JUMP JUMPDEST PUSH1 0x0 DUP2 CALLDATALOAD SWAP1 POP PUSH2 0x1496 DUP2 PUSH2 0x1470 JUMP JUMPDEST SWAP3 SWAP2 POP POP JUMP JUMPDEST PUSH1 0x0 DUP1 PUSH1 0x40 DUP4 DUP6 SUB SLT ISZERO PUSH2 0x14B3 JUMPI PUSH2 0x14B2 PUSH2 0x1216 JUMP JUMPDEST JUMPDEST PUSH1 0x0 PUSH2 0x14C1 DUP6 DUP3 DUP7 ADD PUSH2 0x1451 JUMP JUMPDEST SWAP3 POP POP PUSH1 0x20 PUSH2 0x14D2 DUP6 DUP3 DUP7 ADD PUSH2 0x1487 JUMP JUMPDEST SWAP2 POP POP SWAP3 POP SWAP3 SWAP1 POP JUMP JUMPDEST PUSH1 0x0 PUSH1 0x20 DUP3 DUP5 SUB SLT ISZERO PUSH2 0x14F2 JUMPI PUSH2 0x14F1 PUSH2 0x1216 JUMP JUMPDEST JUMPDEST PUSH1 0x0 PUSH2 0x1500 DUP5 DUP3 DUP6 ADD PUSH2 0x1451 JUMP JUMPDEST SWAP2 POP POP SWAP3 SWAP2 POP POP JUMP JUMPDEST PUSH1 0x0 DUP2 SWAP1 POP SWAP2 SWAP1 POP JUMP JUMPDEST PUSH2 0x151C DUP2 PUSH2 0x1509 JUMP JUMPDEST DUP3 MSTORE POP POP JUMP JUMPDEST PUSH1 0x0 PUSH1 0x20 DUP3 ADD SWAP1 POP PUSH2 0x1537 PUSH1 0x0 DUP4 ADD DUP5 PUSH2 0x1513 JUMP JUMPDEST SWAP3 SWAP2 POP POP JUMP JUMPDEST PUSH2 0x1546 DUP2 PUSH2 0x1466 JUMP JUMPDEST DUP3 MSTORE POP POP JUMP JUMPDEST PUSH1 0x0 PUSH1 0x60 DUP3 ADD SWAP1 POP PUSH2 0x1561 PUSH1 0x0 DUP4 ADD DUP7 PUSH2 0x153D JUMP JUMPDEST PUSH2 0x156E PUSH1 0x20 DUP4 ADD DUP6 PUSH2 0x153D JUMP JUMPDEST PUSH2 0x157B PUSH1 0x40 DUP4 ADD DUP5 PUSH2 0x153D JUMP JUMPDEST SWAP5 SWAP4 POP POP POP POP JUMP JUMPDEST PUSH1 0x0 PUSH1 0x20 DUP3 DUP5 SUB SLT ISZERO PUSH2 0x1599 JUMPI PUSH2 0x1598 PUSH2 0x1216 JUMP JUMPDEST JUMPDEST PUSH1 0x0 DUP3 ADD CALLDATALOAD PUSH8 0xFFFFFFFFFFFFFFFF DUP2 GT ISZERO PUSH2 0x15B7 JUMPI PUSH2 0x15B6 PUSH2 0x121B JUMP JUMPDEST JUMPDEST PUSH2 0x15C3 DUP5 DUP3 DUP6 ADD PUSH2 0x1338 JUMP JUMPDEST SWAP2 POP POP SWAP3 SWAP2 POP POP JUMP JUMPDEST PUSH1 0x0 DUP2 ISZERO ISZERO SWAP1 POP SWAP2 SWAP1 POP JUMP JUMPDEST PUSH2 0x15E1 DUP2 PUSH2 0x15CC JUMP JUMPDEST DUP3 MSTORE POP POP JUMP JUMPDEST PUSH1 0x0 PUSH1 0x20 DUP3 ADD SWAP1 POP PUSH2 0x15FC PUSH1 0x0 DUP4 ADD DUP5 PUSH2 0x15D8 JUMP JUMPDEST SWAP3 SWAP2 POP POP JUMP JUMPDEST PUSH1 0x0 DUP1 PUSH1 0x40 DUP4 DUP6 SUB SLT ISZERO PUSH2 0x1619 JUMPI PUSH2 0x1618 PUSH2 0x1216 JUMP JUMPDEST JUMPDEST PUSH1 0x0 PUSH2 0x1627 DUP6 DUP3 DUP7 ADD PUSH2 0x1487 JUMP JUMPDEST SWAP3 POP POP PUSH1 0x20 PUSH2 0x1638 DUP6 DUP3 DUP7 ADD PUSH2 0x1487 JUMP JUMPDEST SWAP2 POP POP SWAP3 POP SWAP3 SWAP1 POP JUMP JUMPDEST PUSH1 0x0 DUP1 PUSH1 0x0 PUSH1 0x60 DUP5 DUP7 SUB SLT ISZERO PUSH2 0x165B JUMPI PUSH2 0x165A PUSH2 0x1216 JUMP JUMPDEST JUMPDEST PUSH1 0x0 PUSH2 0x1669 DUP7 DUP3 DUP8 ADD PUSH2 0x1487 JUMP JUMPDEST SWAP4 POP POP PUSH1 0x20 PUSH2 0x167A DUP7 DUP3 DUP8 ADD PUSH2 0x1487 JUMP JUMPDEST SWAP3 POP POP PUSH1 0x40 DUP5 ADD CALLDATALOAD PUSH8 0xFFFFFFFFFFFFFFFF DUP2 GT ISZERO PUSH2 0x169B JUMPI PUSH2 0x169A PUSH2 0x121B JUMP JUMPDEST JUMPDEST PUSH2 0x16A7 DUP7 DUP3 DUP8 ADD PUSH2 0x1338 JUMP JUMPDEST SWAP2 POP POP SWAP3 POP SWAP3 POP SWAP3 JUMP JUMPDEST PUSH2 0x16BA DUP2 PUSH2 0x1509 JUMP JUMPDEST DUP2 EQ PUSH2 0x16C5 JUMPI PUSH1 0x0 DUP1 REVERT JUMPDEST POP JUMP JUMPDEST PUSH1 0x0 DUP2 CALLDATALOAD SWAP1 POP PUSH2 0x16D7 DUP2 PUSH2 0x16B1 JUMP JUMPDEST SWAP3 SWAP2 POP POP JUMP JUMPDEST PUSH1 0x0 DUP1 PUSH1 0x0 PUSH1 0x60 DUP5 DUP7 SUB SLT ISZERO PUSH2 0x16F6 JUMPI PUSH2 0x16F5 PUSH2 0x1216 JUMP JUMPDEST JUMPDEST PUSH1 0x0 PUSH2 0x1704 DUP7 DUP3 DUP8 ADD PUSH2 0x1451 JUMP JUMPDEST SWAP4 POP POP PUSH1 0x20 PUSH2 0x1715 DUP7 DUP3 DUP8 ADD PUSH2 0x16C8 JUMP JUMPDEST SWAP3 POP POP PUSH1 0x40 DUP5 ADD CALLDATALOAD PUSH8 0xFFFFFFFFFFFFFFFF DUP2 GT ISZERO PUSH2 0x1736 JUMPI PUSH2 0x1735 PUSH2 0x121B JUMP JUMPDEST JUMPDEST PUSH2 0x1742 DUP7 DUP3 DUP8 ADD PUSH2 0x1338 JUMP JUMPDEST SWAP2 POP POP SWAP3 POP SWAP3 POP SWAP3 JUMP JUMPDEST PUSH1 0x0 DUP2 MLOAD SWAP1 POP SWAP2 SWAP1 POP JUMP JUMPDEST PUSH1 0x0 DUP3 DUP3 MSTORE PUSH1 0x20 DUP3 ADD SWAP1 POP SWAP3 SWAP2 POP POP JUMP JUMPDEST PUSH1 0x0 DUP2 SWAP1 POP PUSH1 0x20 DUP3 ADD SWAP1 POP SWAP2 SWAP1 POP JUMP JUMPDEST PUSH2 0x1781 DUP2 PUSH2 0x1466 JUMP JUMPDEST DUP3 MSTORE POP POP JUMP JUMPDEST PUSH1 0x60 DUP3 ADD PUSH1 0x0 DUP3 ADD MLOAD PUSH2 0x179D PUSH1 0x0 DUP6 ADD DUP3 PUSH2 0x1778 JUMP JUMPDEST POP PUSH1 0x20 DUP3 ADD MLOAD PUSH2 0x17B0 PUSH1 0x20 DUP6 ADD DUP3 PUSH2 0x1778 JUMP JUMPDEST POP PUSH1 0x40 DUP3 ADD MLOAD PUSH2 0x17C3 PUSH1 0x40 DUP6 ADD DUP3 PUSH2 0x1778 JUMP JUMPDEST POP POP POP POP JUMP JUMPDEST PUSH1 0x0 PUSH2 0x17D5 DUP4 DUP4 PUSH2 0x1787 JUMP JUMPDEST PUSH1 0x60 DUP4 ADD SWAP1 POP SWAP3 SWAP2 POP POP JUMP JUMPDEST PUSH1 0x0 PUSH1 0x20 DUP3 ADD SWAP1 POP SWAP2 SWAP1 POP JUMP JUMPDEST PUSH1 0x0 PUSH2 0x17F9 DUP3 PUSH2 0x174C JUMP JUMPDEST PUSH2 0x1803 DUP2 DUP6 PUSH2 0x1757 JUMP JUMPDEST SWAP4 POP PUSH2 0x180E DUP4 PUSH2 0x1768 JUMP JUMPDEST DUP1 PUSH1 0x0 JUMPDEST DUP4 DUP2 LT ISZERO PUSH2 0x183F JUMPI DUP2 MLOAD PUSH2 0x1826 DUP9 DUP3 PUSH2 0x17C9 JUMP JUMPDEST SWAP8 POP PUSH2 0x1831 DUP4 PUSH2 0x17E1 JUMP JUMPDEST SWAP3 POP POP PUSH1 0x1 DUP2 ADD SWAP1 POP PUSH2 0x1812 JUMP JUMPDEST POP DUP6 SWAP4 POP POP POP POP SWAP3 SWAP2 POP POP JUMP JUMPDEST PUSH1 0x0 PUSH1 0x20 DUP3 ADD SWAP1 POP DUP2 DUP2 SUB PUSH1 0x0 DUP4 ADD MSTORE PUSH2 0x1866 DUP2 DUP5 PUSH2 0x17EE JUMP JUMPDEST SWAP1 POP SWAP3 SWAP2 POP POP JUMP JUMPDEST PUSH1 0x0 DUP2 MLOAD SWAP1 POP SWAP2 SWAP1 POP JUMP JUMPDEST PUSH1 0x0 DUP2 SWAP1 POP SWAP3 SWAP2 POP POP JUMP JUMPDEST PUSH1 0x0 JUMPDEST DUP4 DUP2 LT ISZERO PUSH2 0x18A2 JUMPI DUP1 DUP3 ADD MLOAD DUP2 DUP5 ADD MSTORE PUSH1 0x20 DUP2 ADD SWAP1 POP PUSH2 0x1887 JUMP JUMPDEST PUSH1 0x0 DUP5 DUP5 ADD MSTORE POP POP POP POP JUMP JUMPDEST PUSH1 0x0 PUSH2 0x18B9 DUP3 PUSH2 0x186E JUMP JUMPDEST PUSH2 0x18C3 DUP2 DUP6 PUSH2 0x1879 JUMP JUMPDEST SWAP4 POP PUSH2 0x18D3 DUP2 DUP6 PUSH1 0x20 DUP7 ADD PUSH2 0x1884 JUMP JUMPDEST DUP1 DUP5 ADD SWAP2 POP POP SWAP3 SWAP2 POP POP JUMP JUMPDEST PUSH1 0x0 PUSH2 0x18EB DUP3 DUP5 PUSH2 0x18AE JUMP JUMPDEST SWAP2 POP DUP2 SWAP1 POP SWAP3 SWAP2 POP POP JUMP JUMPDEST PUSH1 0x0 DUP3 DUP3 MSTORE PUSH1 0x20 DUP3 ADD SWAP1 POP SWAP3 SWAP2 POP POP JUMP JUMPDEST PUSH32 0x55736572206E6F7420666F756E64000000000000000000000000000000000000 PUSH1 0x0 DUP3 ADD MSTORE POP JUMP JUMPDEST PUSH1 0x0 PUSH2 0x193D PUSH1 0xE DUP4 PUSH2 0x18F6 JUMP JUMPDEST SWAP2 POP PUSH2 0x1948 DUP3 PUSH2 0x1907 JUMP JUMPDEST PUSH1 0x20 DUP3 ADD SWAP1 POP SWAP2 SWAP1 POP JUMP JUMPDEST PUSH1 0x0 PUSH1 0x20 DUP3 ADD SWAP1 POP DUP2 DUP2 SUB PUSH1 0x0 DUP4 ADD MSTORE PUSH2 0x196C DUP2 PUSH2 0x1930 JUMP JUMPDEST SWAP1 POP SWAP2 SWAP1 POP JUMP JUMPDEST PUSH32 0x4E487B7100000000000000000000000000000000000000000000000000000000 PUSH1 0x0 MSTORE PUSH1 0x22 PUSH1 0x4 MSTORE PUSH1 0x24 PUSH1 0x0 REVERT JUMPDEST PUSH1 0x0 PUSH1 0x2 DUP3 DIV SWAP1 POP PUSH1 0x1 DUP3 AND DUP1 PUSH2 0x19BA JUMPI PUSH1 0x7F DUP3 AND SWAP2 POP JUMPDEST PUSH1 0x20 DUP3 LT DUP2 SUB PUSH2 0x19CD JUMPI PUSH2 0x19CC PUSH2 0x1973 JUMP JUMPDEST JUMPDEST POP SWAP2 SWAP1 POP JUMP JUMPDEST PUSH1 0x0 DUP2 SWAP1 POP DUP2 PUSH1 0x0 MSTORE PUSH1 0x20 PUSH1 0x0 KECCAK256 SWAP1 POP SWAP2 SWAP1 POP JUMP JUMPDEST PUSH1 0x0 DUP2 SLOAD PUSH2 0x19F5 DUP2 PUSH2 0x19A2 JUMP JUMPDEST PUSH2 0x19FF DUP2 DUP7 PUSH2 0x1879 JUMP JUMPDEST SWAP5 POP PUSH1 0x1 DUP3 AND PUSH1 0x0 DUP2 EQ PUSH2 0x1A1A JUMPI PUSH1 0x1 DUP2 EQ PUSH2 0x1A2F JUMPI PUSH2 0x1A62 JUMP JUMPDEST PUSH1 0xFF NOT DUP4 AND DUP7 MSTORE DUP2 ISZERO ISZERO DUP3 MUL DUP7 ADD SWAP4 POP PUSH2 0x1A62 JUMP JUMPDEST PUSH2 0x1A38 DUP6 PUSH2 0x19D3 JUMP JUMPDEST PUSH1 0x0 JUMPDEST DUP4 DUP2 LT ISZERO PUSH2 0x1A5A JUMPI DUP2 SLOAD DUP2 DUP10 ADD MSTORE PUSH1 0x1 DUP3 ADD SWAP2 POP PUSH1 0x20 DUP2 ADD SWAP1 POP PUSH2 0x1A3B JUMP JUMPDEST DUP4 DUP9 ADD SWAP6 POP POP POP JUMPDEST POP POP POP SWAP3 SWAP2 POP POP JUMP JUMPDEST PUSH1 0x0 PUSH2 0x1A77 DUP3 DUP5 PUSH2 0x19E8 JUMP JUMPDEST SWAP2 POP DUP2 SWAP1 POP SWAP3 SWAP2 POP POP JUMP JUMPDEST PUSH32 0x496E636F72726563742070617373776F72640000000000000000000000000000 PUSH1 0x0 DUP3 ADD MSTORE POP JUMP JUMPDEST PUSH1 0x0 PUSH2 0x1AB8 PUSH1 0x12 DUP4 PUSH2 0x18F6 JUMP JUMPDEST SWAP2 POP PUSH2 0x1AC3 DUP3 PUSH2 0x1A82 JUMP JUMPDEST PUSH1 0x20 DUP3 ADD SWAP1 POP SWAP2 SWAP1 POP JUMP JUMPDEST PUSH1 0x0 PUSH1 0x20 DUP3 ADD SWAP1 POP DUP2 DUP2 SUB PUSH1 0x0 DUP4 ADD MSTORE PUSH2 0x1AE7 DUP2 PUSH2 0x1AAB JUMP JUMPDEST SWAP1 POP SWAP2 SWAP1 POP JUMP JUMPDEST PUSH32 0x5573657220616C72656164792072656769737465726564000000000000000000 PUSH1 0x0 DUP3 ADD MSTORE POP JUMP JUMPDEST PUSH1 0x0 PUSH2 0x1B24 PUSH1 0x17 DUP4 PUSH2 0x18F6 JUMP JUMPDEST SWAP2 POP PUSH2 0x1B2F DUP3 PUSH2 0x1AEE JUMP JUMPDEST PUSH1 0x20 DUP3 ADD SWAP1 POP SWAP2 SWAP1 POP JUMP JUMPDEST PUSH1 0x0 PUSH1 0x20 DUP3 ADD SWAP1 POP DUP2 DUP2 SUB PUSH1 0x0 DUP4 ADD MSTORE PUSH2 0x1B53 DUP2 PUSH2 0x1B17 JUMP JUMPDEST SWAP1 POP SWAP2 SWAP1 POP JUMP JUMPDEST PUSH1 0x0 PUSH1 0x20 PUSH1 0x1F DUP4 ADD DIV SWAP1 POP SWAP2 SWAP1 POP JUMP JUMPDEST PUSH1 0x0 DUP3 DUP3 SHL SWAP1 POP SWAP3 SWAP2 POP POP JUMP JUMPDEST PUSH1 0x0 PUSH1 0x8 DUP4 MUL PUSH2 0x1BA7 PUSH32 0xFFFFFFFFFFFFFFFFFFFFFFFFFFFFFFFFFFFFFFFFFFFFFFFFFFFFFFFFFFFFFFFF DUP3 PUSH2 0x1B6A JUMP JUMPDEST PUSH2 0x1BB1 DUP7 DUP4 PUSH2 0x1B6A JUMP JUMPDEST SWAP6 POP DUP1 NOT DUP5 AND SWAP4 POP DUP1 DUP7 AND DUP5 OR SWAP3 POP POP POP SWAP4 SWAP3 POP POP POP JUMP JUMPDEST PUSH1 0x0 DUP2 SWAP1 POP SWAP2 SWAP1 POP JUMP JUMPDEST PUSH1 0x0 PUSH2 0x1BEE PUSH2 0x1BE9 PUSH2 0x1BE4 DUP5 PUSH2 0x1466 JUMP JUMPDEST PUSH2 0x1BC9 JUMP JUMPDEST PUSH2 0x1466 JUMP JUMPDEST SWAP1 POP SWAP2 SWAP1 POP JUMP JUMPDEST PUSH1 0x0 DUP2 SWAP1 POP SWAP2 SWAP1 POP JUMP JUMPDEST PUSH2 0x1C08 DUP4 PUSH2 0x1BD3 JUMP JUMPDEST PUSH2 0x1C1C PUSH2 0x1C14 DUP3 PUSH2 0x1BF5 JUMP JUMPDEST DUP5 DUP5 SLOAD PUSH2 0x1B77 JUMP JUMPDEST DUP3 SSTORE POP POP POP POP JUMP JUMPDEST PUSH1 0x0 SWAP1 JUMP JUMPDEST PUSH2 0x1C31 PUSH2 0x1C24 JUMP JUMPDEST PUSH2 0x1C3C DUP2 DUP5 DUP5 PUSH2 0x1BFF JUMP JUMPDEST POP POP POP JUMP JUMPDEST JUMPDEST DUP2 DUP2 LT ISZERO PUSH2 0x1C60 JUMPI PUSH2 0x1C55 PUSH1 0x0 DUP3 PUSH2 0x1C29 JUMP JUMPDEST PUSH1 0x1 DUP2 ADD SWAP1 POP PUSH2 0x1C42 JUMP JUMPDEST POP POP JUMP JUMPDEST PUSH1 0x1F DUP3 GT ISZERO PUSH2 0x1CA5 JUMPI PUSH2 0x1C76 DUP2 PUSH2 0x19D3 JUMP JUMPDEST PUSH2 0x1C7F DUP5 PUSH2 0x1B5A JUMP JUMPDEST DUP2 ADD PUSH1 0x20 DUP6 LT ISZERO PUSH2 0x1C8E JUMPI DUP2 SWAP1 POP JUMPDEST PUSH2 0x1CA2 PUSH2 0x1C9A DUP6 PUSH2 0x1B5A JUMP JUMPDEST DUP4 ADD DUP3 PUSH2 0x1C41 JUMP JUMPDEST POP POP JUMPDEST POP POP POP JUMP JUMPDEST PUSH1 0x0 DUP3 DUP3 SHR SWAP1 POP SWAP3 SWAP2 POP POP JUMP JUMPDEST PUSH1 0x0 PUSH2 0x1CC8 PUSH1 0x0 NOT DUP5 PUSH1 0x8 MUL PUSH2 0x1CAA JUMP JUMPDEST NOT DUP1 DUP4 AND SWAP2 POP POP SWAP3 SWAP2 POP POP JUMP JUMPDEST PUSH1 0x0 PUSH2 0x1CE1 DUP4 DUP4 PUSH2 0x1CB7 JUMP JUMPDEST SWAP2 POP DUP3 PUSH1 0x2 MUL DUP3 OR SWAP1 POP SWAP3 SWAP2 POP POP JUMP JUMPDEST PUSH2 0x1CFA DUP3 PUSH2 0x186E JUMP JUMPDEST PUSH8 0xFFFFFFFFFFFFFFFF DUP2 GT ISZERO PUSH2 0x1D13 JUMPI PUSH2 0x1D12 PUSH2 0x123B JUMP JUMPDEST JUMPDEST PUSH2 0x1D1D DUP3 SLOAD PUSH2 0x19A2 JUMP JUMPDEST PUSH2 0x1D28 DUP3 DUP3 DUP6 PUSH2 0x1C64 JUMP JUMPDEST PUSH1 0x0 PUSH1 0x20 SWAP1 POP PUSH1 0x1F DUP4 GT PUSH1 0x1 DUP2 EQ PUSH2 0x1D5B JUMPI PUSH1 0x0 DUP5 ISZERO PUSH2 0x1D49 JUMPI DUP3 DUP8 ADD MLOAD SWAP1 POP JUMPDEST PUSH2 0x1D53 DUP6 DUP3 PUSH2 0x1CD5 JUMP JUMPDEST DUP7 SSTORE POP PUSH2 0x1DBB JUMP JUMPDEST PUSH1 0x1F NOT DUP5 AND PUSH2 0x1D69 DUP7 PUSH2 0x19D3 JUMP JUMPDEST PUSH1 0x0 JUMPDEST DUP3 DUP2 LT ISZERO PUSH2 0x1D91 JUMPI DUP5 DUP10 ADD MLOAD DUP3 SSTORE PUSH1 0x1 DUP3 ADD SWAP2 POP PUSH1 0x20 DUP6 ADD SWAP5 POP PUSH1 0x20 DUP2 ADD SWAP1 POP PUSH2 0x1D6C JUMP JUMPDEST DUP7 DUP4 LT ISZERO PUSH2 0x1DAE JUMPI DUP5 DUP10 ADD MLOAD PUSH2 0x1DAA PUSH1 0x1F DUP10 AND DUP3 PUSH2 0x1CB7 JUMP JUMPDEST DUP4 SSTORE POP JUMPDEST PUSH1 0x1 PUSH1 0x2 DUP9 MUL ADD DUP9 SSTORE POP POP POP JUMPDEST POP POP POP POP POP POP JUMP JUMPDEST PUSH1 0x0 PUSH2 0x1DCE DUP3 PUSH2 0x186E JUMP JUMPDEST PUSH2 0x1DD8 DUP2 DUP6 PUSH2 0x18F6 JUMP JUMPDEST SWAP4 POP PUSH2 0x1DE8 DUP2 DUP6 PUSH1 0x20 DUP7 ADD PUSH2 0x1884 JUMP JUMPDEST PUSH2 0x1DF1 DUP2 PUSH2 0x122A JUMP JUMPDEST DUP5 ADD SWAP2 POP POP SWAP3 SWAP2 POP POP JUMP JUMPDEST PUSH1 0x0 PUSH1 0x20 DUP3 ADD SWAP1 POP DUP2 DUP2 SUB PUSH1 0x0 DUP4 ADD MSTORE PUSH2 0x1E16 DUP2 DUP5 PUSH2 0x1DC3 JUMP JUMPDEST SWAP1 POP SWAP3 SWAP2 POP POP JUMP JUMPDEST PUSH32 0x526174696E67206D757374206265206265747765656E203120616E6420350000 PUSH1 0x0 DUP3 ADD MSTORE POP JUMP JUMPDEST PUSH1 0x0 PUSH2 0x1E54 PUSH1 0x1E DUP4 PUSH2 0x18F6 JUMP JUMPDEST SWAP2 POP PUSH2 0x1E5F DUP3 PUSH2 0x1E1E JUMP JUMPDEST PUSH1 0x20 DUP3 ADD SWAP1 POP SWAP2 SWAP1 POP JUMP JUMPDEST PUSH1 0x0 PUSH1 0x20 DUP3 ADD SWAP1 POP DUP2 DUP2 SUB PUSH1 0x0 DUP4 ADD MSTORE PUSH2 0x1E83 DUP2 PUSH2 0x1E47 JUMP JUMPDEST SWAP1 POP SWAP2 SWAP1 POP JUMP JUMPDEST PUSH32 0x4F6E6C7920726567697374657265642075736572732063616E2063616C6C2074 PUSH1 0x0 DUP3 ADD MSTORE PUSH32 0x6869732066756E6374696F6E0000000000000000000000000000000000000000 PUSH1 0x20 DUP3 ADD MSTORE POP JUMP JUMPDEST PUSH1 0x0 PUSH2 0x1EE6 PUSH1 0x2C DUP4 PUSH2 0x18F6 JUMP JUMPDEST SWAP2 POP PUSH2 0x1EF1 DUP3 PUSH2 0x1E8A JUMP JUMPDEST PUSH1 0x40 DUP3 ADD SWAP1 POP SWAP2 SWAP1 POP JUMP JUMPDEST PUSH1 0x0 PUSH1 0x20 DUP3 ADD SWAP1 POP DUP2 DUP2 SUB PUSH1 0x0 DUP4 ADD MSTORE PUSH2 0x1F15 DUP2 PUSH2 0x1ED9 JUMP JUMPDEST SWAP1 POP SWAP2 SWAP1 POP JUMP JUMPDEST PUSH1 0x0 DUP2 SWAP1 POP SWAP2 SWAP1 POP JUMP JUMPDEST PUSH1 0x0 PUSH1 0xFF DUP3 AND SWAP1 POP SWAP2 SWAP1 POP JUMP JUMPDEST PUSH1 0x0 PUSH2 0x1F4E PUSH2 0x1F49 PUSH2 0x1F44 DUP5 PUSH2 0x1F1C JUMP JUMPDEST PUSH2 0x1BC9 JUMP JUMPDEST PUSH2 0x1F26 JUMP JUMPDEST SWAP1 POP SWAP2 SWAP1 POP JUMP JUMPDEST PUSH2 0x1F5E DUP2 PUSH2 0x1F33 JUMP JUMPDEST DUP3 MSTORE POP POP JUMP JUMPDEST PUSH1 0x0 PUSH1 0x60 DUP3 ADD SWAP1 POP PUSH2 0x1F79 PUSH1 0x0 DUP4 ADD DUP7 PUSH2 0x1410 JUMP JUMPDEST PUSH2 0x1F86 PUSH1 0x20 DUP4 ADD DUP6 PUSH2 0x1F55 JUMP JUMPDEST PUSH2 0x1F93 PUSH1 0x40 DUP4 ADD DUP5 PUSH2 0x153D JUMP JUMPDEST SWAP5 SWAP4 POP POP POP POP JUMP JUMPDEST PUSH1 0x0 DUP2 MLOAD SWAP1 POP SWAP2 SWAP1 POP JUMP JUMPDEST PUSH1 0x0 DUP2 SWAP1 POP SWAP3 SWAP2 POP POP JUMP JUMPDEST PUSH1 0x0 PUSH2 0x1FBC DUP3 PUSH2 0x1F9B JUMP JUMPDEST PUSH2 0x1FC6 DUP2 DUP6 PUSH2 0x1FA6 JUMP JUMPDEST SWAP4 POP PUSH2 0x1FD6 DUP2 DUP6 PUSH1 0x20 DUP7 ADD PUSH2 0x1884 JUMP JUMPDEST DUP1 DUP5 ADD SWAP2 POP POP SWAP3 SWAP2 POP POP JUMP JUMPDEST PUSH1 0x0 PUSH2 0x1FEE DUP3 DUP5 PUSH2 0x1FB1 JUMP JUMPDEST SWAP2 POP DUP2 SWAP1 POP SWAP3 SWAP2 POP POP JUMP JUMPDEST PUSH32 0x4661696C656420746F2063616C6C2072617465557365722066756E6374696F6E PUSH1 0x0 DUP3 ADD MSTORE PUSH32 0x20696E204D65726368616E74436F6E74726163745F6878000000000000000000 PUSH1 0x20 DUP3 ADD MSTORE POP JUMP JUMPDEST PUSH1 0x0 PUSH2 0x2055 PUSH1 0x37 DUP4 PUSH2 0x18F6 JUMP JUMPDEST SWAP2 POP PUSH2 0x2060 DUP3 PUSH2 0x1FF9 JUMP JUMPDEST PUSH1 0x40 DUP3 ADD SWAP1 POP SWAP2 SWAP1 POP JUMP JUMPDEST PUSH1 0x0 PUSH1 0x20 DUP3 ADD SWAP1 POP DUP2 DUP2 SUB PUSH1 0x0 DUP4 ADD MSTORE PUSH2 0x2084 DUP2 PUSH2 0x2048 JUMP JUMPDEST SWAP1 POP SWAP2 SWAP1 POP JUMP JUMPDEST PUSH1 0x0 PUSH1 0x20 DUP3 ADD SWAP1 POP PUSH2 0x20A0 PUSH1 0x0 DUP4 ADD DUP5 PUSH2 0x153D JUMP JUMPDEST SWAP3 SWAP2 POP POP JUMP JUMPDEST PUSH32 0x496E73756666696369656E742062616C616E6365000000000000000000000000 PUSH1 0x0 DUP3 ADD MSTORE POP JUMP JUMPDEST PUSH1 0x0 PUSH2 0x20DC PUSH1 0x14 DUP4 PUSH2 0x18F6 JUMP JUMPDEST SWAP2 POP PUSH2 0x20E7 DUP3 PUSH2 0x20A6 JUMP JUMPDEST PUSH1 0x20 DUP3 ADD SWAP1 POP SWAP2 SWAP1 POP JUMP JUMPDEST PUSH1 0x0 PUSH1 0x20 DUP3 ADD SWAP1 POP DUP2 DUP2 SUB PUSH1 0x0 DUP4 ADD MSTORE PUSH2 0x210B DUP2 PUSH2 0x20CF JUMP JUMPDEST SWAP1 POP SWAP2 SWAP1 POP JUMP JUMPDEST PUSH32 0x4E487B7100000000000000000000000000000000000000000000000000000000 PUSH1 0x0 MSTORE PUSH1 0x11 PUSH1 0x4 MSTORE PUSH1 0x24 PUSH1 0x0 REVERT JUMPDEST PUSH1 0x0 PUSH2 0x214C DUP3 PUSH2 0x1509 JUMP JUMPDEST SWAP2 POP PUSH2 0x2157 DUP4 PUSH2 0x1509 JUMP JUMPDEST SWAP3 POP DUP3 DUP3 SUB SWAP1 POP DUP2 DUP2 SLT PUSH1 0x0 DUP5 SLT AND DUP3 DUP3 SGT PUSH1 0x0 DUP6 SLT ISZERO AND OR ISZERO PUSH2 0x217E JUMPI PUSH2 0x217D PUSH2 0x2112 JUMP JUMPDEST JUMPDEST SWAP3 SWAP2 POP POP JUMP JUMPDEST PUSH32 0x50726F6475637420707572636861736564000000000000000000000000000000 PUSH1 0x0 DUP3 ADD MSTORE POP JUMP JUMPDEST PUSH1 0x0 PUSH2 0x21BA PUSH1 0x11 DUP4 PUSH2 0x18F6 JUMP JUMPDEST SWAP2 POP PUSH2 0x21C5 DUP3 PUSH2 0x2184 JUMP JUMPDEST PUSH1 0x20 DUP3 ADD SWAP1 POP SWAP2 SWAP1 POP JUMP JUMPDEST PUSH1 0x0 PUSH1 0x40 DUP3 ADD SWAP1 POP PUSH2 0x21E5 PUSH1 0x0 DUP4 ADD DUP5 PUSH2 0x153D JUMP JUMPDEST DUP2 DUP2 SUB PUSH1 0x20 DUP4 ADD MSTORE PUSH2 0x21F6 DUP2 PUSH2 0x21AD JUMP JUMPDEST SWAP1 POP SWAP3 SWAP2 POP POP JUMP JUMPDEST PUSH1 0x0 PUSH1 0x40 DUP3 ADD SWAP1 POP PUSH2 0x2213 PUSH1 0x0 DUP4 ADD DUP6 PUSH2 0x153D JUMP JUMPDEST DUP2 DUP2 SUB PUSH1 0x20 DUP4 ADD MSTORE PUSH2 0x2225 DUP2 DUP5 PUSH2 0x1DC3 JUMP JUMPDEST SWAP1 POP SWAP4 SWAP3 POP POP POP JUMP JUMPDEST PUSH32 0x4F6E6C79206F776E65722063616E2063616C6C20746869732066756E6374696F PUSH1 0x0 DUP3 ADD MSTORE PUSH32 0x6E00000000000000000000000000000000000000000000000000000000000000 PUSH1 0x20 DUP3 ADD MSTORE POP JUMP JUMPDEST PUSH1 0x0 PUSH2 0x228A PUSH1 0x21 DUP4 PUSH2 0x18F6 JUMP JUMPDEST SWAP2 POP PUSH2 0x2295 DUP3 PUSH2 0x222E JUMP JUMPDEST PUSH1 0x40 DUP3 ADD SWAP1 POP SWAP2 SWAP1 POP JUMP JUMPDEST PUSH1 0x0 PUSH1 0x20 DUP3 ADD SWAP1 POP DUP2 DUP2 SUB PUSH1 0x0 DUP4 ADD MSTORE PUSH2 0x22B9 DUP2 PUSH2 0x227D JUMP JUMPDEST SWAP1 POP SWAP2 SWAP1 POP JUMP JUMPDEST PUSH1 0x0 PUSH2 0x22CB DUP3 PUSH2 0x1509 JUMP JUMPDEST SWAP2 POP PUSH2 0x22D6 DUP4 PUSH2 0x1509 JUMP JUMPDEST SWAP3 POP DUP3 DUP3 ADD SWAP1 POP DUP3 DUP2 SLT ISZERO PUSH1 0x0 DUP4 SLT AND DUP4 DUP3 SLT PUSH1 0x0 DUP5 SLT ISZERO AND OR ISZERO PUSH2 0x22FE JUMPI PUSH2 0x22FD PUSH2 0x2112 JUMP JUMPDEST JUMPDEST SWAP3 SWAP2 POP POP JUMP JUMPDEST PUSH1 0x0 PUSH1 0x40 DUP3 ADD SWAP1 POP PUSH2 0x2319 PUSH1 0x0 DUP4 ADD DUP6 PUSH2 0x1513 JUMP JUMPDEST DUP2 DUP2 SUB PUSH1 0x20 DUP4 ADD MSTORE PUSH2 0x232B DUP2 DUP5 PUSH2 0x1DC3 JUMP JUMPDEST SWAP1 POP SWAP4 SWAP3 POP POP POP JUMP JUMPDEST PUSH32 0x4D65726368616E7420636F6E7472616374206164647265737320616C72656164 PUSH1 0x0 DUP3 ADD MSTORE PUSH32 0x7920736574000000000000000000000000000000000000000000000000000000 PUSH1 0x20 DUP3 ADD MSTORE POP JUMP JUMPDEST PUSH1 0x0 PUSH2 0x2390 PUSH1 0x25 DUP4 PUSH2 0x18F6 JUMP JUMPDEST SWAP2 POP PUSH2 0x239B DUP3 PUSH2 0x2334 JUMP JUMPDEST PUSH1 0x40 DUP3 ADD SWAP1 POP SWAP2 SWAP1 POP JUMP JUMPDEST PUSH1 0x0 PUSH1 0x20 DUP3 ADD SWAP1 POP DUP2 DUP2 SUB PUSH1 0x0 DUP4 ADD MSTORE PUSH2 0x23BF DUP2 PUSH2 0x2383 JUMP JUMPDEST SWAP1 POP SWAP2 SWAP1 POP JUMP INVALID LOG2 PUSH5 0x6970667358 0x22 SLT KECCAK256 SWAP12 0xB9 CALLDATACOPY 0xAD PUSH32 0x97CE415190D363FF7446D1A026D9DE41AF50D670D176531B69B35664736F6C63 NUMBER STOP ADDMOD XOR STOP CALLER "},"methodIdentifiers":{"addComment_hx(uint256,uint256,string)":"e0d4d4ca","balances_hx(address)":"4d49c8bf","getBalance_hx()":"c5927679","getTransactionHistory_hx()":"fcb15486","getUserAddress_hx(string)":"89392a68","login_hx(string,string)":"114805fd","merchantContractAddress_hx()":"a666f705","purchaseProduct_hx(uint256,uint256)":"c234ac9c","registerAsUser_hx(string,string)":"25481bd0","respondToMerchantRating_hx(address,uint256)":"3931ed1e","setMerchantContractAddress_hx(address)":"fe907d2d","transactionHistory_hx(address,uint256)":"6969b3ed","updateBalance_hx(address,int256,string)":"ee22d9ce","users_hx(address)":"8ef47a31","verifyPwd_hx(string,string)":"e1a9797f"}}}}}