{
  "_format": "hh-sol-artifact-1",
  "contractName": "MerchantContract_hx",
  "sourceName": "contracts/MerchantContract_hx.sol",
  "abi": [
    {
      "anonymous": false,
      "inputs": [
        {
          "indexed": false,
          "internalType": "uint256",
          "name": "id_hx",
          "type": "uint256"
        },
        {
          "indexed": false,
          "internalType": "string",
          "name": "name_hx",
          "type": "string"
        },
        {
          "indexed": false,
          "internalType": "uint256",
          "name": "price_hx",
          "type": "uint256"
        },
        {
          "indexed": false,
          "internalType": "uint256",
          "name": "quantity_hx",
          "type": "uint256"
        },
        {
          "indexed": false,
          "internalType": "string",
          "name": "imgCID_hx",
          "type": "string"
        }
      ],
      "name": "ProductAdded_hx",
      "type": "event"
    },
    {
      "anonymous": false,
      "inputs": [
        {
          "indexed": false,
          "internalType": "uint256",
          "name": "id_hx",
          "type": "uint256"
        },
        {
          "indexed": false,
          "internalType": "string",
          "name": "name_hx",
          "type": "string"
        },
        {
          "indexed": false,
          "internalType": "address",
          "name": "buyer_hx",
          "type": "address"
        }
      ],
      "name": "ProductPurchased_hx",
      "type": "event"
    },
    {
      "anonymous": false,
      "inputs": [
        {
          "indexed": false,
          "internalType": "uint256",
          "name": "id_hx",
          "type": "uint256"
        },
        {
          "indexed": false,
          "internalType": "address",
          "name": "user_hx",
          "type": "address"
        },
        {
          "indexed": false,
          "internalType": "uint256",
          "name": "rating_hx",
          "type": "uint256"
        },
        {
          "indexed": false,
          "internalType": "string",
          "name": "comment_hx",
          "type": "string"
        }
      ],
      "name": "ReviewAdded_hx",
      "type": "event"
    },
    {
      "anonymous": false,
      "inputs": [
        {
          "indexed": false,
          "internalType": "uint256",
          "name": "id_hx",
          "type": "uint256"
        },
        {
          "indexed": false,
          "internalType": "address",
          "name": "seller_hx",
          "type": "address"
        },
        {
          "indexed": false,
          "internalType": "string",
          "name": "reply_hx",
          "type": "string"
        }
      ],
      "name": "ReviewReplied_hx",
      "type": "event"
    },
    {
      "anonymous": false,
      "inputs": [
        {
          "indexed": true,
          "internalType": "uint256",
          "name": "id_hx",
          "type": "uint256"
        },
        {
          "indexed": true,
          "internalType": "address",
          "name": "seller_hx",
          "type": "address"
        }
      ],
      "name": "ReviewViewed_hx",
      "type": "event"
    },
    {
      "inputs": [
        {
          "internalType": "string",
          "name": "_name_hx",
          "type": "string"
        },
        {
          "internalType": "string",
          "name": "_description_hx",
          "type": "string"
        },
        {
          "internalType": "uint256",
          "name": "_price_hx",
          "type": "uint256"
        },
        {
          "internalType": "uint256",
          "name": "_quantity_hx",
          "type": "uint256"
        },
        {
          "internalType": "string",
          "name": "_imgCID_hx",
          "type": "string"
        }
      ],
      "name": "addProduct_hx",
      "outputs": [],
      "stateMutability": "nonpayable",
      "type": "function"
    },
    {
      "inputs": [
        {
          "internalType": "address",
          "name": "_owner_hx",
          "type": "address"
        }
      ],
      "name": "creatorMerchantMap_hx",
      "outputs": [
        {
          "internalType": "address",
          "name": "",
          "type": "address"
        }
      ],
      "stateMutability": "view",
      "type": "function"
    },
    {
      "inputs": [],
      "name": "getContractBalance_hx",
      "outputs": [
        {
          "internalType": "uint256",
          "name": "",
          "type": "uint256"
        }
      ],
      "stateMutability": "view",
      "type": "function"
    },
    {
      "inputs": [],
      "name": "getProductIds_hx",
      "outputs": [
        {
          "internalType": "uint256[]",
          "name": "",
          "type": "uint256[]"
        }
      ],
      "stateMutability": "view",
      "type": "function"
    },
    {
      "inputs": [
        {
          "internalType": "uint256",
          "name": "_productId_hx",
          "type": "uint256"
        }
      ],
      "name": "getProductInfoById_hx",
      "outputs": [
        {
          "internalType": "uint256",
          "name": "",
          "type": "uint256"
        },
        {
          "internalType": "address",
          "name": "",
          "type": "address"
        },
        {
          "internalType": "address",
          "name": "",
          "type": "address"
        },
        {
          "internalType": "string",
          "name": "",
          "type": "string"
        },
        {
          "internalType": "string",
          "name": "",
          "type": "string"
        },
        {
          "internalType": "uint256",
          "name": "",
          "type": "uint256"
        },
        {
          "internalType": "uint256",
          "name": "",
          "type": "uint256"
        },
        {
          "internalType": "bool",
          "name": "",
          "type": "bool"
        },
        {
          "internalType": "string",
          "name": "",
          "type": "string"
        },
        {
          "internalType": "uint256",
          "name": "",
          "type": "uint256"
        }
      ],
      "stateMutability": "view",
      "type": "function"
    },
    {
      "inputs": [
        {
          "internalType": "uint256",
          "name": "_productId_hx",
          "type": "uint256"
        }
      ],
      "name": "getProductReviewInfo_hx",
      "outputs": [
        {
          "internalType": "address",
          "name": "",
          "type": "address"
        },
        {
          "internalType": "string",
          "name": "",
          "type": "string"
        },
        {
          "internalType": "string",
          "name": "",
          "type": "string"
        },
        {
          "internalType": "uint256",
          "name": "",
          "type": "uint256"
        }
      ],
      "stateMutability": "view",
      "type": "function"
    },
    {
      "inputs": [
        {
          "internalType": "uint256",
          "name": "_productId_hx",
          "type": "uint256"
        }
      ],
      "name": "getProductSeller_hx",
      "outputs": [
        {
          "internalType": "address",
          "name": "",
          "type": "address"
        }
      ],
      "stateMutability": "view",
      "type": "function"
    },
    {
      "inputs": [
        {
          "internalType": "address",
          "name": "",
          "type": "address"
        }
      ],
      "name": "merchants_hx",
      "outputs": [
        {
          "internalType": "bool",
          "name": "",
          "type": "bool"
        }
      ],
      "stateMutability": "view",
      "type": "function"
    },
    {
      "inputs": [],
      "name": "productCounter_hx",
      "outputs": [
        {
          "internalType": "uint256",
          "name": "",
          "type": "uint256"
        }
      ],
      "stateMutability": "view",
      "type": "function"
    },
    {
      "inputs": [
        {
          "internalType": "uint256",
          "name": "_productId_hx",
          "type": "uint256"
        }
      ],
      "name": "productExists_hx",
      "outputs": [
        {
          "internalType": "bool",
          "name": "",
          "type": "bool"
        }
      ],
      "stateMutability": "view",
      "type": "function"
    },
    {
      "inputs": [
        {
          "internalType": "uint256",
          "name": "",
          "type": "uint256"
        }
      ],
      "name": "products_hx",
      "outputs": [
        {
          "internalType": "uint256",
          "name": "id_hx",
          "type": "uint256"
        },
        {
          "internalType": "address",
          "name": "seller_hx",
          "type": "address"
        },
        {
          "internalType": "address",
          "name": "buyer_hx",
          "type": "address"
        },
        {
          "internalType": "string",
          "name": "name_hx",
          "type": "string"
        },
        {
          "internalType": "string",
          "name": "description_hx",
          "type": "string"
        },
        {
          "internalType": "uint256",
          "name": "price_hx",
          "type": "uint256"
        },
        {
          "internalType": "uint256",
          "name": "quantity_hx",
          "type": "uint256"
        },
        {
          "internalType": "bool",
          "name": "available_hx",
          "type": "bool"
        },
        {
          "internalType": "string",
          "name": "imgCID_hx",
          "type": "string"
        },
        {
          "internalType": "uint256",
          "name": "timestamp_hx",
          "type": "uint256"
        },
        {
          "components": [
            {
              "internalType": "address",
              "name": "user_hx",
              "type": "address"
            },
            {
              "internalType": "string",
              "name": "comment_hx",
              "type": "string"
            },
            {
              "internalType": "string",
              "name": "reply_hx",
              "type": "string"
            },
            {
              "internalType": "uint256",
              "name": "rating_hx",
              "type": "uint256"
            }
          ],
          "internalType": "struct MerchantContract_hx.Review_hx",
          "name": "review_hx",
          "type": "tuple"
        }
      ],
      "stateMutability": "view",
      "type": "function"
    },
    {
      "inputs": [
        {
          "internalType": "uint256",
          "name": "_productId_hx",
          "type": "uint256"
        }
      ],
      "name": "purchaseProduct_hx",
      "outputs": [],
      "stateMutability": "payable",
      "type": "function"
    },
    {
      "inputs": [
        {
          "internalType": "string",
          "name": "_userName_hx",
          "type": "string"
        }
      ],
      "name": "registerAsMerchant_hx",
      "outputs": [],
      "stateMutability": "nonpayable",
      "type": "function"
    },
    {
      "inputs": [
        {
          "internalType": "uint256",
          "name": "_productId_hx",
          "type": "uint256"
        },
        {
          "internalType": "string",
          "name": "_reply_hx",
          "type": "string"
        }
      ],
      "name": "replyReview_hx",
      "outputs": [],
      "stateMutability": "nonpayable",
      "type": "function"
    },
    {
      "inputs": [
        {
          "internalType": "uint256",
          "name": "",
          "type": "uint256"
        }
      ],
      "name": "reviewedProducts_hx",
      "outputs": [
        {
          "internalType": "bool",
          "name": "",
          "type": "bool"
        }
      ],
      "stateMutability": "view",
      "type": "function"
    },
    {
      "inputs": [
        {
          "internalType": "uint256",
          "name": "_productId_hx",
          "type": "uint256"
        },
        {
          "internalType": "bool",
          "name": "_onSale_hx",
          "type": "bool"
        }
      ],
      "name": "setProductOnSale_hx",
      "outputs": [],
      "stateMutability": "nonpayable",
      "type": "function"
    },
    {
      "inputs": [
        {
          "internalType": "string",
          "name": "_userName_hx",
          "type": "string"
        },
        {
          "internalType": "string",
          "name": "",
          "type": "string"
        }
      ],
      "name": "verifyPwd_hx",
      "outputs": [
        {
          "internalType": "bool",
          "name": "",
          "type": "bool"
        }
      ],
      "stateMutability": "view",
      "type": "function"
    },
    {
      "inputs": [
        {
          "internalType": "uint256",
          "name": "_productId_hx",
          "type": "uint256"
        }
      ],
      "name": "viewProductReviews_hx",
      "outputs": [],
      "stateMutability": "nonpayable",
      "type": "function"
    }
  ],
  "bytecode": "0x608060405234801561001057600080fd5b50613086806100206000396000f3fe6080604052600436106101095760003560e01c80635a247c2f116100955780638cfb53e5116100645780638cfb53e5146103a6578063ab37ced5146103d1578063b5b9ff45146103fc578063b6f5123d14610439578063e1a9797f1461047657610109565b80635a247c2f146102da578063688262b414610303578063802e0b1c14610340578063861942131461037d57610109565b80631f8c0e44116100dc5780631f8c0e44146101b957806323c70a0c146101e457806329c26a831461020d57806345d1a9bf1461024d578063485f30601461029457610109565b8063038fa25f1461010e5780630fcbd7f81461012a57806319dcbabd146101535780631da72e371461017c575b600080fd5b61012860048036038101906101239190611c46565b6104b3565b005b34801561013657600080fd5b50610151600480360381019061014c9190611db9565b610722565b005b34801561015f57600080fd5b5061017a60048036038101906101759190611e02565b610867565b005b34801561018857600080fd5b506101a3600480360381019061019e9190611f2f565b610be3565b6040516101b09190611f77565b60405180910390f35b3480156101c557600080fd5b506101ce610c03565b6040516101db9190611fa1565b60405180910390f35b3480156101f057600080fd5b5061020b60048036038101906102069190611c46565b610c09565b005b34801561021957600080fd5b50610234600480360381019061022f9190611c46565b610dc1565b604051610244949392919061204a565b60405180910390f35b34801561025957600080fd5b50610274600480360381019061026f9190611c46565b610f9b565b60405161028b9b9a9998979695949392919061216f565b60405180910390f35b3480156102a057600080fd5b506102bb60048036038101906102b69190611c46565b611368565b6040516102d19a99989796959493929190612236565b60405180910390f35b3480156102e657600080fd5b5061030160048036038101906102fc9190612313565b611628565b005b34801561030f57600080fd5b5061032a60048036038101906103259190611c46565b611754565b6040516103379190611f77565b60405180910390f35b34801561034c57600080fd5b5061036760048036038101906103629190611c46565b611774565b6040516103749190611f77565b60405180910390f35b34801561038957600080fd5b506103a4600480360381019061039f9190612353565b611796565b005b3480156103b257600080fd5b506103bb611930565b6040516103c89190611fa1565b60405180910390f35b3480156103dd57600080fd5b506103e6611938565b6040516103f3919061245e565b60405180910390f35b34801561040857600080fd5b50610423600480360381019061041e9190611f2f565b6119f5565b6040516104309190612480565b60405180910390f35b34801561044557600080fd5b50610460600480360381019061045b9190611c46565b611a8b565b60405161046d9190612480565b60405180910390f35b34801561048257600080fd5b5061049d6004803603810190610498919061249b565b611b21565b6040516104aa9190611f77565b60405180910390f35b600080600083815260200190815260200160002090506000816000015403610510576040517f08c379a00000000000000000000000000000000000000000000000000000000081526004016105079061255f565b60405180910390fd5b8060070160009054906101000a900460ff16610561576040517f08c379a0000000000000000000000000000000000000000000000000000000008152600401610558906125f1565b60405180910390fd5b60008160060154116105a8576040517f08c379a000000000000000000000000000000000000000000000000000000000815260040161059f9061265d565b60405180910390fd5b806005015434146105ee576040517f08c379a00000000000000000000000000000000000000000000000000000000081526004016105e5906126c9565b60405180910390fd5b338160020160006101000a81548173ffffffffffffffffffffffffffffffffffffffff021916908373ffffffffffffffffffffffffffffffffffffffff16021790555080600601600081548092919061064690612718565b919050555060008160060154036106755760008160070160006101000a81548160ff0219169083151502179055505b8060010160009054906101000a900473ffffffffffffffffffffffffffffffffffffffff1673ffffffffffffffffffffffffffffffffffffffff166108fc349081150290604051600060405180830381858888f193505050501580156106df573d6000803e3d6000fd5b507f64b1c0cb8717fc0e2eed5635444f153e478b8d35693f835629b370613d3ee8c48282600301336040516107169392919061283a565b60405180910390a15050565b600260003373ffffffffffffffffffffffffffffffffffffffff1673ffffffffffffffffffffffffffffffffffffffff16815260200190815260200160002060009054906101000a900460ff16156107af576040517f08c379a00000000000000000000000000000000000000000000000000000000081526004016107a6906128c4565b60405180910390fd5b6001600260003373ffffffffffffffffffffffffffffffffffffffff1673ffffffffffffffffffffffffffffffffffffffff16815260200190815260200160002060006101000a81548160ff021916908315150217905550336003826040516108189190612920565b908152602001604051809103902060006101000a81548173ffffffffffffffffffffffffffffffffffffffff021916908373ffffffffffffffffffffffffffffffffffffffff16021790555050565b600260003373ffffffffffffffffffffffffffffffffffffffff1673ffffffffffffffffffffffffffffffffffffffff16815260200190815260200160002060009054906101000a900460ff166108f3576040517f08c379a00000000000000000000000000000000000000000000000000000000081526004016108ea90612983565b60405180910390fd5b60016000815480929190610906906129a3565b919050555060405180610160016040528060015481526020013373ffffffffffffffffffffffffffffffffffffffff168152602001600073ffffffffffffffffffffffffffffffffffffffff16815260200186815260200185815260200184815260200183815260200160008411151581526020018281526020014281526020016040518060800160405280600073ffffffffffffffffffffffffffffffffffffffff168152602001604051806020016040528060008152508152602001604051806020016040528060008152508152602001600081525081525060008060015481526020019081526020016000206000820151816000015560208201518160010160006101000a81548173ffffffffffffffffffffffffffffffffffffffff021916908373ffffffffffffffffffffffffffffffffffffffff16021790555060408201518160020160006101000a81548173ffffffffffffffffffffffffffffffffffffffff021916908373ffffffffffffffffffffffffffffffffffffffff1602179055506060820151816003019081610aa29190612b82565b506080820151816004019081610ab89190612b82565b5060a0820151816005015560c0820151816006015560e08201518160070160006101000a81548160ff021916908315150217905550610100820151816008019081610b039190612b82565b50610120820151816009015561014082015181600a0160008201518160000160006101000a81548173ffffffffffffffffffffffffffffffffffffffff021916908373ffffffffffffffffffffffffffffffffffffffff1602179055506020820151816001019081610b759190612b82565b506040820151816002019081610b8b9190612b82565b506060820151816003015550509050507f482a51c45d03774db1c3d18d87290396817776c01c0a178fff5c183ec9872ef860015486858585604051610bd4959493929190612c54565b60405180910390a15050505050565b60026020528060005260406000206000915054906101000a900460ff1681565b60015481565b600260003373ffffffffffffffffffffffffffffffffffffffff1673ffffffffffffffffffffffffffffffffffffffff16815260200190815260200160002060009054906101000a900460ff16610c95576040517f08c379a0000000000000000000000000000000000000000000000000000000008152600401610c8c90612d01565b60405180910390fd5b60008060008381526020019081526020016000206000015403610ced576040517f08c379a0000000000000000000000000000000000000000000000000000000008152600401610ce49061255f565b60405180910390fd5b6004600082815260200190815260200160002060009054906101000a900460ff1615610d4e576040517f08c379a0000000000000000000000000000000000000000000000000000000008152600401610d4590612d93565b60405180910390fd5b60016004600083815260200190815260200160002060006101000a81548160ff0219169083151502179055503373ffffffffffffffffffffffffffffffffffffffff16817f6f0eebe88f93b4369d42ac72c0d4872000b53a77b39f6e92553fcb65f8afee0460405160405180910390a350565b60006060806000806000808781526020019081526020016000206000015403610e1f576040517f08c379a0000000000000000000000000000000000000000000000000000000008152600401610e169061255f565b60405180910390fd5b6000806000878152602001908152602001600020905080600a0160000160009054906101000a900473ffffffffffffffffffffffffffffffffffffffff1681600a0160010182600a0160020183600a0160030154828054610e7f90612770565b80601f0160208091040260200160405190810160405280929190818152602001828054610eab90612770565b8015610ef85780601f10610ecd57610100808354040283529160200191610ef8565b820191906000526020600020905b815481529060010190602001808311610edb57829003601f168201915b50505050509250818054610f0b90612770565b80601f0160208091040260200160405190810160405280929190818152602001828054610f3790612770565b8015610f845780601f10610f5957610100808354040283529160200191610f84565b820191906000526020600020905b815481529060010190602001808311610f6757829003601f168201915b505050505091509450945094509450509193509193565b60006020528060005260406000206000915090508060000154908060010160009054906101000a900473ffffffffffffffffffffffffffffffffffffffff16908060020160009054906101000a900473ffffffffffffffffffffffffffffffffffffffff169080600301805461101090612770565b80601f016020809104026020016040519081016040528092919081815260200182805461103c90612770565b80156110895780601f1061105e57610100808354040283529160200191611089565b820191906000526020600020905b81548152906001019060200180831161106c57829003601f168201915b50505050509080600401805461109e90612770565b80601f01602080910402602001604051908101604052809291908181526020018280546110ca90612770565b80156111175780601f106110ec57610100808354040283529160200191611117565b820191906000526020600020905b8154815290600101906020018083116110fa57829003601f168201915b5050505050908060050154908060060154908060070160009054906101000a900460ff169080600801805461114b90612770565b80601f016020809104026020016040519081016040528092919081815260200182805461117790612770565b80156111c45780601f10611199576101008083540402835291602001916111c4565b820191906000526020600020905b8154815290600101906020018083116111a757829003601f168201915b50505050509080600901549080600a016040518060800160405290816000820160009054906101000a900473ffffffffffffffffffffffffffffffffffffffff1673ffffffffffffffffffffffffffffffffffffffff1673ffffffffffffffffffffffffffffffffffffffff16815260200160018201805461124590612770565b80601f016020809104026020016040519081016040528092919081815260200182805461127190612770565b80156112be5780601f10611293576101008083540402835291602001916112be565b820191906000526020600020905b8154815290600101906020018083116112a157829003601f168201915b505050505081526020016002820180546112d790612770565b80601f016020809104026020016040519081016040528092919081815260200182805461130390612770565b80156113505780601f1061132557610100808354040283529160200191611350565b820191906000526020600020905b81548152906001019060200180831161133357829003601f168201915b5050505050815260200160038201548152505090508b565b6000806000606080600080600060606000806000808d815260200190815260200160002060000154036113d0576040517f08c379a00000000000000000000000000000000000000000000000000000000081526004016113c79061255f565b60405180910390fd5b60008060008d8152602001908152602001600020905080600001548160010160009054906101000a900473ffffffffffffffffffffffffffffffffffffffff168260020160009054906101000a900473ffffffffffffffffffffffffffffffffffffffff168360030184600401856005015486600601548760070160009054906101000a900460ff1688600801896009015486805461146e90612770565b80601f016020809104026020016040519081016040528092919081815260200182805461149a90612770565b80156114e75780601f106114bc576101008083540402835291602001916114e7565b820191906000526020600020905b8154815290600101906020018083116114ca57829003601f168201915b505050505096508580546114fa90612770565b80601f016020809104026020016040519081016040528092919081815260200182805461152690612770565b80156115735780601f1061154857610100808354040283529160200191611573565b820191906000526020600020905b81548152906001019060200180831161155657829003601f168201915b5050505050955081805461158690612770565b80601f01602080910402602001604051908101604052809291908181526020018280546115b290612770565b80156115ff5780601f106115d4576101008083540402835291602001916115ff565b820191906000526020600020905b8154815290600101906020018083116115e257829003601f168201915b505050505091509a509a509a509a509a509a509a509a509a509a50509193959799509193959799565b60008060008481526020019081526020016000206000015403611680576040517f08c379a00000000000000000000000000000000000000000000000000000000081526004016116779061255f565b60405180910390fd5b3373ffffffffffffffffffffffffffffffffffffffff1660008084815260200190815260200160002060010160009054906101000a900473ffffffffffffffffffffffffffffffffffffffff1673ffffffffffffffffffffffffffffffffffffffff1614611723576040517f08c379a000000000000000000000000000000000000000000000000000000000815260040161171a90612e25565b60405180910390fd5b8060008084815260200190815260200160002060070160006101000a81548160ff0219169083151502179055505050565b60046020528060005260406000206000915054906101000a900460ff1681565b6000806000808481526020019081526020016000206000015414159050919050565b6000806000848152602001908152602001600020905060008160000154036117f3576040517f08c379a00000000000000000000000000000000000000000000000000000000081526004016117ea9061255f565b60405180910390fd5b3373ffffffffffffffffffffffffffffffffffffffff168160010160009054906101000a900473ffffffffffffffffffffffffffffffffffffffff1673ffffffffffffffffffffffffffffffffffffffff1614611885576040517f08c379a000000000000000000000000000000000000000000000000000000000815260040161187c90612eb7565b60405180910390fd5b600081600a01600101805461189990612770565b9050116118db576040517f08c379a00000000000000000000000000000000000000000000000000000000081526004016118d290612f23565b60405180910390fd5b8181600a0160020190816118ef9190612b82565b507fdb7aae500e12ffd7a547e5fa2ebf35e982fb8a182d8842d18a958d5943a8c9e383338460405161192393929190612f43565b60405180910390a1505050565b600047905090565b6060600060015467ffffffffffffffff81111561195857611957611c8e565b5b6040519080825280602002602001820160405280156119865781602001602082028036833780820191505090505b5090506000600190505b60015481116119ed5760008082815260200190815260200160002060000154826001836119bd9190612f81565b815181106119ce576119cd612fb5565b5b60200260200101818152505080806119e5906129a3565b915050611990565b508091505090565b6000600260008373ffffffffffffffffffffffffffffffffffffffff1673ffffffffffffffffffffffffffffffffffffffff16815260200190815260200160002060009054906101000a900460ff16611a83576040517f08c379a0000000000000000000000000000000000000000000000000000000008152600401611a7a90613030565b60405180910390fd5b309050919050565b6000806000808481526020019081526020016000206000015403611ae4576040517f08c379a0000000000000000000000000000000000000000000000000000000008152600401611adb9061255f565b60405180910390fd5b60008083815260200190815260200160002060010160009054906101000a900473ffffffffffffffffffffffffffffffffffffffff169050919050565b600080600384604051611b349190612920565b908152602001604051809103902060009054906101000a900473ffffffffffffffffffffffffffffffffffffffff169050600260008273ffffffffffffffffffffffffffffffffffffffff1673ffffffffffffffffffffffffffffffffffffffff16815260200190815260200160002060009054906101000a900460ff16611bf1576040517f08c379a0000000000000000000000000000000000000000000000000000000008152600401611be890613030565b60405180910390fd5b600191505092915050565b6000604051905090565b600080fd5b600080fd5b6000819050919050565b611c2381611c10565b8114611c2e57600080fd5b50565b600081359050611c4081611c1a565b92915050565b600060208284031215611c5c57611c5b611c06565b5b6000611c6a84828501611c31565b91505092915050565b600080fd5b600080fd5b6000601f19601f8301169050919050565b7f4e487b7100000000000000000000000000000000000000000000000000000000600052604160045260246000fd5b611cc682611c7d565b810181811067ffffffffffffffff82111715611ce557611ce4611c8e565b5b80604052505050565b6000611cf8611bfc565b9050611d048282611cbd565b919050565b600067ffffffffffffffff821115611d2457611d23611c8e565b5b611d2d82611c7d565b9050602081019050919050565b82818337600083830152505050565b6000611d5c611d5784611d09565b611cee565b905082815260208101848484011115611d7857611d77611c78565b5b611d83848285611d3a565b509392505050565b600082601f830112611da057611d9f611c73565b5b8135611db0848260208601611d49565b91505092915050565b600060208284031215611dcf57611dce611c06565b5b600082013567ffffffffffffffff811115611ded57611dec611c0b565b5b611df984828501611d8b565b91505092915050565b600080600080600060a08688031215611e1e57611e1d611c06565b5b600086013567ffffffffffffffff811115611e3c57611e3b611c0b565b5b611e4888828901611d8b565b955050602086013567ffffffffffffffff811115611e6957611e68611c0b565b5b611e7588828901611d8b565b9450506040611e8688828901611c31565b9350506060611e9788828901611c31565b925050608086013567ffffffffffffffff811115611eb857611eb7611c0b565b5b611ec488828901611d8b565b9150509295509295909350565b600073ffffffffffffffffffffffffffffffffffffffff82169050919050565b6000611efc82611ed1565b9050919050565b611f0c81611ef1565b8114611f1757600080fd5b50565b600081359050611f2981611f03565b92915050565b600060208284031215611f4557611f44611c06565b5b6000611f5384828501611f1a565b91505092915050565b60008115159050919050565b611f7181611f5c565b82525050565b6000602082019050611f8c6000830184611f68565b92915050565b611f9b81611c10565b82525050565b6000602082019050611fb66000830184611f92565b92915050565b611fc581611ef1565b82525050565b600081519050919050565b600082825260208201905092915050565b60005b83811015612005578082015181840152602081019050611fea565b60008484015250505050565b600061201c82611fcb565b6120268185611fd6565b9350612036818560208601611fe7565b61203f81611c7d565b840191505092915050565b600060808201905061205f6000830187611fbc565b81810360208301526120718186612011565b905081810360408301526120858185612011565b90506120946060830184611f92565b95945050505050565b6120a681611ef1565b82525050565b600082825260208201905092915050565b60006120c882611fcb565b6120d281856120ac565b93506120e2818560208601611fe7565b6120eb81611c7d565b840191505092915050565b6120ff81611c10565b82525050565b600060808301600083015161211d600086018261209d565b506020830151848203602086015261213582826120bd565b9150506040830151848203604086015261214f82826120bd565b915050606083015161216460608601826120f6565b508091505092915050565b600061016082019050612185600083018e611f92565b612192602083018d611fbc565b61219f604083018c611fbc565b81810360608301526121b1818b612011565b905081810360808301526121c5818a612011565b90506121d460a0830189611f92565b6121e160c0830188611f92565b6121ee60e0830187611f68565b8181036101008301526122018186612011565b9050612211610120830185611f92565b8181036101408301526122248184612105565b90509c9b505050505050505050505050565b60006101408201905061224c600083018d611f92565b612259602083018c611fbc565b612266604083018b611fbc565b8181036060830152612278818a612011565b9050818103608083015261228c8189612011565b905061229b60a0830188611f92565b6122a860c0830187611f92565b6122b560e0830186611f68565b8181036101008301526122c88185612011565b90506122d8610120830184611f92565b9b9a5050505050505050505050565b6122f081611f5c565b81146122fb57600080fd5b50565b60008135905061230d816122e7565b92915050565b6000806040838503121561232a57612329611c06565b5b600061233885828601611c31565b9250506020612349858286016122fe565b9150509250929050565b6000806040838503121561236a57612369611c06565b5b600061237885828601611c31565b925050602083013567ffffffffffffffff81111561239957612398611c0b565b5b6123a585828601611d8b565b9150509250929050565b600081519050919050565b600082825260208201905092915050565b6000819050602082019050919050565b60006123e783836120f6565b60208301905092915050565b6000602082019050919050565b600061240b826123af565b61241581856123ba565b9350612420836123cb565b8060005b8381101561245157815161243888826123db565b9750612443836123f3565b925050600181019050612424565b5085935050505092915050565b600060208201905081810360008301526124788184612400565b905092915050565b60006020820190506124956000830184611fbc565b92915050565b600080604083850312156124b2576124b1611c06565b5b600083013567ffffffffffffffff8111156124d0576124cf611c0b565b5b6124dc85828601611d8b565b925050602083013567ffffffffffffffff8111156124fd576124fc611c0b565b5b61250985828601611d8b565b9150509250929050565b7f50726f6475637420646f6573206e6f7420657869737400000000000000000000600082015250565b6000612549601683611fd6565b915061255482612513565b602082019050919050565b600060208201905081810360008301526125788161253c565b9050919050565b7f50726f64756374206973206e6f7420617661696c61626c6520666f722070757260008201527f6368617365000000000000000000000000000000000000000000000000000000602082015250565b60006125db602583611fd6565b91506125e68261257f565b604082019050919050565b6000602082019050818103600083015261260a816125ce565b9050919050565b7f50726f64756374206973206f7574206f662073746f636b000000000000000000600082015250565b6000612647601783611fd6565b915061265282612611565b602082019050919050565b600060208201905081810360008301526126768161263a565b9050919050565b7f496e636f72726563742076616c75652073656e74000000000000000000000000600082015250565b60006126b3601483611fd6565b91506126be8261267d565b602082019050919050565b600060208201905081810360008301526126e2816126a6565b9050919050565b7f4e487b7100000000000000000000000000000000000000000000000000000000600052601160045260246000fd5b600061272382611c10565b915060008203612736576127356126e9565b5b600182039050919050565b7f4e487b7100000000000000000000000000000000000000000000000000000000600052602260045260246000fd5b6000600282049050600182168061278857607f821691505b60208210810361279b5761279a612741565b5b50919050565b60008190508160005260206000209050919050565b600081546127c381612770565b6127cd8186611fd6565b945060018216600081146127e857600181146127fe57612831565b60ff198316865281151560200286019350612831565b612807856127a1565b60005b838110156128295781548189015260018201915060208101905061280a565b808801955050505b50505092915050565b600060608201905061284f6000830186611f92565b818103602083015261286181856127b6565b90506128706040830184611fbc565b949350505050565b7f4d65726368616e7420616c726561647920726567697374657265640000000000600082015250565b60006128ae601b83611fd6565b91506128b982612878565b602082019050919050565b600060208201905081810360008301526128dd816128a1565b9050919050565b600081905092915050565b60006128fa82611fcb565b61290481856128e4565b9350612914818560208601611fe7565b80840191505092915050565b600061292c82846128ef565b915081905092915050565b7f4f6e6c79206d65726368616e74732063616e206164642070726f647563747300600082015250565b600061296d601f83611fd6565b915061297882612937565b602082019050919050565b6000602082019050818103600083015261299c81612960565b9050919050565b60006129ae82611c10565b91507fffffffffffffffffffffffffffffffffffffffffffffffffffffffffffffffff82036129e0576129df6126e9565b5b600182019050919050565b60006020601f8301049050919050565b600082821b905092915050565b600060088302612a387fffffffffffffffffffffffffffffffffffffffffffffffffffffffffffffffff826129fb565b612a4286836129fb565b95508019841693508086168417925050509392505050565b6000819050919050565b6000612a7f612a7a612a7584611c10565b612a5a565b611c10565b9050919050565b6000819050919050565b612a9983612a64565b612aad612aa582612a86565b848454612a08565b825550505050565b600090565b612ac2612ab5565b612acd818484612a90565b505050565b5b81811015612af157612ae6600082612aba565b600181019050612ad3565b5050565b601f821115612b3657612b07816127a1565b612b10846129eb565b81016020851015612b1f578190505b612b33612b2b856129eb565b830182612ad2565b50505b505050565b600082821c905092915050565b6000612b5960001984600802612b3b565b1980831691505092915050565b6000612b728383612b48565b9150826002028217905092915050565b612b8b82611fcb565b67ffffffffffffffff811115612ba457612ba3611c8e565b5b612bae8254612770565b612bb9828285612af5565b600060209050601f831160018114612bec5760008415612bda578287015190505b612be48582612b66565b865550612c4c565b601f198416612bfa866127a1565b60005b82811015612c2257848901518255600182019150602085019450602081019050612bfd565b86831015612c3f5784890151612c3b601f891682612b48565b8355505b6001600288020188555050505b505050505050565b600060a082019050612c696000830188611f92565b8181036020830152612c7b8187612011565b9050612c8a6040830186611f92565b612c976060830185611f92565b8181036080830152612ca98184612011565b90509695505050505050565b7f4f6e6c79206d65726368616e74732063616e2076696577207265766965777300600082015250565b6000612ceb601f83611fd6565b9150612cf682612cb5565b602082019050919050565b60006020820190508181036000830152612d1a81612cde565b9050919050565b7f5265766965777320616c72656164792076696577656420666f7220746869732060008201527f70726f6475637400000000000000000000000000000000000000000000000000602082015250565b6000612d7d602783611fd6565b9150612d8882612d21565b604082019050919050565b60006020820190508181036000830152612dac81612d70565b9050919050565b7f4f6e6c79207468652073656c6c65722063616e206d6f6469667920746865207060008201527f726f647563740000000000000000000000000000000000000000000000000000602082015250565b6000612e0f602683611fd6565b9150612e1a82612db3565b604082019050919050565b60006020820190508181036000830152612e3e81612e02565b9050919050565b7f4f6e6c79207468652073656c6c65722063616e207265706c7920746f2074686560008201527f2072657669657700000000000000000000000000000000000000000000000000602082015250565b6000612ea1602783611fd6565b9150612eac82612e45565b604082019050919050565b60006020820190508181036000830152612ed081612e94565b9050919050565b7f4e6f2072657669657720746f207265706c7920746f0000000000000000000000600082015250565b6000612f0d601583611fd6565b9150612f1882612ed7565b602082019050919050565b60006020820190508181036000830152612f3c81612f00565b9050919050565b6000606082019050612f586000830186611f92565b612f656020830185611fbc565b8181036040830152612f778184612011565b9050949350505050565b6000612f8c82611c10565b9150612f9783611c10565b9250828203905081811115612faf57612fae6126e9565b5b92915050565b7f4e487b7100000000000000000000000000000000000000000000000000000000600052603260045260246000fd5b7f4d65726368616e7420646f6573206e6f74206578697374000000000000000000600082015250565b600061301a601783611fd6565b915061302582612fe4565b602082019050919050565b600060208201905081810360008301526130498161300d565b905091905056fea264697066735822122061eb171ffabfc4b6665cb085f41ec70dccac923a4e0c8924ae289532f2cf056664736f6c63430008180033",
  "linkReferences": {},
  "deployedLinkReferences": {}
}