{
  "_format": "hh-sol-artifact-1",
  "contractName": "UserContract_hx",
  "sourceName": "contracts/UserContract_hx.sol",
  "abi": [
    {
      "inputs": [],
      "stateMutability": "nonpayable",
      "type": "constructor"
    },
    {
      "anonymous": false,
      "inputs": [
        {
          "indexed": true,
          "internalType": "address",
          "name": "user_hx",
          "type": "address"
        },
        {
          "indexed": false,
          "internalType": "int256",
          "name": "amount_hx",
          "type": "int256"
        },
        {
          "indexed": false,
          "internalType": "string",
          "name": "description_hx",
          "type": "string"
        }
      ],
      "name": "BalanceUpdated_hx",
      "type": "event"
    },
    {
      "anonymous": false,
      "inputs": [
        {
          "indexed": true,
          "internalType": "address",
          "name": "merchant_hx",
          "type": "address"
        },
        {
          "indexed": true,
          "internalType": "address",
          "name": "user_hx",
          "type": "address"
        },
        {
          "indexed": false,
          "internalType": "uint256",
          "name": "rating_hx",
          "type": "uint256"
        }
      ],
      "name": "MerchantRated_hx",
      "type": "event"
    },
    {
      "anonymous": false,
      "inputs": [
        {
          "indexed": true,
          "internalType": "address",
          "name": "user_hx",
          "type": "address"
        },
        {
          "indexed": false,
          "internalType": "uint256",
          "name": "price_hx",
          "type": "uint256"
        },
        {
          "indexed": false,
          "internalType": "string",
          "name": "description_hx",
          "type": "string"
        }
      ],
      "name": "ProductPurchased_hx",
      "type": "event"
    },
    {
      "anonymous": false,
      "inputs": [
        {
          "indexed": true,
          "internalType": "uint256",
          "name": "productId",
          "type": "uint256"
        },
        {
          "indexed": true,
          "internalType": "address",
          "name": "user",
          "type": "address"
        },
        {
          "indexed": false,
          "internalType": "uint256",
          "name": "rating",
          "type": "uint256"
        },
        {
          "indexed": false,
          "internalType": "string",
          "name": "comment",
          "type": "string"
        }
      ],
      "name": "UserCommentAdded",
      "type": "event"
    },
    {
      "anonymous": false,
      "inputs": [
        {
          "indexed": true,
          "internalType": "address",
          "name": "user_hx",
          "type": "address"
        },
        {
          "indexed": true,
          "internalType": "address",
          "name": "merchant_hx",
          "type": "address"
        },
        {
          "indexed": false,
          "internalType": "uint256",
          "name": "rating_hx",
          "type": "uint256"
        }
      ],
      "name": "UserRated_hx",
      "type": "event"
    },
    {
      "anonymous": false,
      "inputs": [
        {
          "indexed": true,
          "internalType": "address",
          "name": "user_hx",
          "type": "address"
        },
        {
          "indexed": false,
          "internalType": "string",
          "name": "userName_hx",
          "type": "string"
        }
      ],
      "name": "UserRegistered_hx",
      "type": "event"
    },
    {
      "inputs": [
        {
          "internalType": "uint256",
          "name": "_productId_hx",
          "type": "uint256"
        },
        {
          "internalType": "uint256",
          "name": "_rating_hx",
          "type": "uint256"
        },
        {
          "internalType": "string",
          "name": "_comment_hx",
          "type": "string"
        }
      ],
      "name": "addComment_hx",
      "outputs": [],
      "stateMutability": "nonpayable",
      "type": "function"
    },
    {
      "inputs": [
        {
          "internalType": "address",
          "name": "",
          "type": "address"
        }
      ],
      "name": "balances_hx",
      "outputs": [
        {
          "internalType": "int256",
          "name": "",
          "type": "int256"
        }
      ],
      "stateMutability": "view",
      "type": "function"
    },
    {
      "inputs": [
        {
          "internalType": "address",
          "name": "",
          "type": "address"
        }
      ],
      "name": "creatorOwnerMap_hx",
      "outputs": [
        {
          "internalType": "address",
          "name": "",
          "type": "address"
        }
      ],
      "stateMutability": "view",
      "type": "function"
    },
    {
      "inputs": [],
      "name": "getBalance_hx",
      "outputs": [
        {
          "internalType": "int256",
          "name": "",
          "type": "int256"
        }
      ],
      "stateMutability": "view",
      "type": "function"
    },
    {
      "inputs": [],
      "name": "getTransactionHistory_hx",
      "outputs": [
        {
          "components": [
            {
              "internalType": "uint256",
              "name": "productId_hx",
              "type": "uint256"
            },
            {
              "internalType": "uint256",
              "name": "price_hx",
              "type": "uint256"
            },
            {
              "internalType": "uint256",
              "name": "timestamp_hx",
              "type": "uint256"
            }
          ],
          "internalType": "struct UserContract_hx.Purchase[]",
          "name": "",
          "type": "tuple[]"
        }
      ],
      "stateMutability": "view",
      "type": "function"
    },
    {
      "inputs": [
        {
          "internalType": "string",
          "name": "_userName",
          "type": "string"
        }
      ],
      "name": "getUserAddress_hx",
      "outputs": [
        {
          "internalType": "address",
          "name": "",
          "type": "address"
        }
      ],
      "stateMutability": "view",
      "type": "function"
    },
    {
      "inputs": [],
      "name": "getUserComments_hx",
      "outputs": [
        {
          "components": [
            {
              "internalType": "uint256",
              "name": "productId_hx",
              "type": "uint256"
            },
            {
              "internalType": "uint256",
              "name": "rating_hx",
              "type": "uint256"
            },
            {
              "internalType": "string",
              "name": "comment_hx",
              "type": "string"
            }
          ],
          "internalType": "struct UserContract_hx.Comment[]",
          "name": "",
          "type": "tuple[]"
        }
      ],
      "stateMutability": "view",
      "type": "function"
    },
    {
      "inputs": [
        {
          "internalType": "string",
          "name": "_userName",
          "type": "string"
        },
        {
          "internalType": "string",
          "name": "_password",
          "type": "string"
        }
      ],
      "name": "login_hx",
      "outputs": [
        {
          "internalType": "address",
          "name": "",
          "type": "address"
        }
      ],
      "stateMutability": "view",
      "type": "function"
    },
    {
      "inputs": [],
      "name": "merchantContractAddress_hx",
      "outputs": [
        {
          "internalType": "address",
          "name": "",
          "type": "address"
        }
      ],
      "stateMutability": "view",
      "type": "function"
    },
    {
      "inputs": [
        {
          "internalType": "uint256",
          "name": "_productId_hx",
          "type": "uint256"
        },
        {
          "internalType": "uint256",
          "name": "_price_hx",
          "type": "uint256"
        }
      ],
      "name": "purchaseProduct_hx",
      "outputs": [],
      "stateMutability": "nonpayable",
      "type": "function"
    },
    {
      "inputs": [
        {
          "internalType": "string",
          "name": "_userName",
          "type": "string"
        },
        {
          "internalType": "string",
          "name": "_password",
          "type": "string"
        }
      ],
      "name": "registerAsUser_hx",
      "outputs": [],
      "stateMutability": "nonpayable",
      "type": "function"
    },
    {
      "inputs": [
        {
          "internalType": "address",
          "name": "_merchant_hx",
          "type": "address"
        },
        {
          "internalType": "uint256",
          "name": "_rating_hx",
          "type": "uint256"
        }
      ],
      "name": "respondToMerchantRating_hx",
      "outputs": [],
      "stateMutability": "nonpayable",
      "type": "function"
    },
    {
      "inputs": [
        {
          "internalType": "address",
          "name": "_merchantContractAddress_hx",
          "type": "address"
        }
      ],
      "name": "setMerchantContractAddress_hx",
      "outputs": [],
      "stateMutability": "nonpayable",
      "type": "function"
    },
    {
      "inputs": [
        {
          "internalType": "address",
          "name": "",
          "type": "address"
        },
        {
          "internalType": "uint256",
          "name": "",
          "type": "uint256"
        }
      ],
      "name": "transactionHistory_hx",
      "outputs": [
        {
          "internalType": "uint256",
          "name": "productId_hx",
          "type": "uint256"
        },
        {
          "internalType": "uint256",
          "name": "price_hx",
          "type": "uint256"
        },
        {
          "internalType": "uint256",
          "name": "timestamp_hx",
          "type": "uint256"
        }
      ],
      "stateMutability": "view",
      "type": "function"
    },
    {
      "inputs": [
        {
          "internalType": "address",
          "name": "user_hx",
          "type": "address"
        },
        {
          "internalType": "int256",
          "name": "amount_hx",
          "type": "int256"
        },
        {
          "internalType": "string",
          "name": "description_hx",
          "type": "string"
        }
      ],
      "name": "updateBalance_hx",
      "outputs": [],
      "stateMutability": "nonpayable",
      "type": "function"
    },
    {
      "inputs": [
        {
          "internalType": "address",
          "name": "",
          "type": "address"
        },
        {
          "internalType": "uint256",
          "name": "",
          "type": "uint256"
        }
      ],
      "name": "userComments_hx",
      "outputs": [
        {
          "internalType": "uint256",
          "name": "productId_hx",
          "type": "uint256"
        },
        {
          "internalType": "uint256",
          "name": "rating_hx",
          "type": "uint256"
        },
        {
          "internalType": "string",
          "name": "comment_hx",
          "type": "string"
        }
      ],
      "stateMutability": "view",
      "type": "function"
    },
    {
      "inputs": [
        {
          "internalType": "address",
          "name": "",
          "type": "address"
        }
      ],
      "name": "users_hx",
      "outputs": [
        {
          "internalType": "bool",
          "name": "",
          "type": "bool"
        }
      ],
      "stateMutability": "view",
      "type": "function"
    },
    {
      "inputs": [
        {
          "internalType": "string",
          "name": "_userName",
          "type": "string"
        },
        {
          "internalType": "string",
          "name": "_password",
          "type": "string"
        }
      ],
      "name": "verifyPwd_hx",
      "outputs": [
        {
          "internalType": "bool",
          "name": "",
          "type": "bool"
        }
      ],
      "stateMutability": "view",
      "type": "function"
    }
  ],
  "bytecode": "0x608060405234801561001057600080fd5b50612710600160003373ffffffffffffffffffffffffffffffffffffffff1673ffffffffffffffffffffffffffffffffffffffff1681526020019081526020016000208190555033600760006101000a81548173ffffffffffffffffffffffffffffffffffffffff021916908373ffffffffffffffffffffffffffffffffffffffff160217905550612929806100a76000396000f3fe608060405234801561001057600080fd5b50600436106101165760003560e01c80639ad13123116100a2578063e0d4d4ca11610071578063e0d4d4ca1461031d578063e1a9797f14610339578063ee22d9ce14610369578063fcb1548614610385578063fe907d2d146103a357610116565b80639ad1312314610295578063a666f705146102c5578063c234ac9c146102e3578063c5927679146102ff57610116565b80634d49c8bf116100e95780634d49c8bf146101b55780636969b3ed146101e5578063765b8cc71461021757806389392a68146102355780638ef47a311461026557610116565b8063114805fd1461011b57806325481bd01461014b5780633931ed1e1461016757806348a221e314610183575b600080fd5b610135600480360381019061013091906116d7565b6103bf565b6040516101429190611790565b60405180910390f35b610165600480360381019061016091906116d7565b610548565b005b610181600480360381019061017c919061180d565b610727565b005b61019d6004803603810190610198919061180d565b6109ce565b6040516101ac939291906118db565b60405180910390f35b6101cf60048036038101906101ca9190611919565b610a9d565b6040516101dc919061195f565b60405180910390f35b6101ff60048036038101906101fa919061180d565b610ab5565b60405161020e9392919061197a565b60405180910390f35b61021f610afc565b60405161022c9190611b1c565b60405180910390f35b61024f600480360381019061024a9190611b3e565b610c3e565b60405161025c9190611790565b60405180910390f35b61027f600480360381019061027a9190611919565b610c86565b60405161028c9190611ba2565b60405180910390f35b6102af60048036038101906102aa9190611919565b610ca6565b6040516102bc9190611790565b60405180910390f35b6102cd610cb0565b6040516102da9190611790565b60405180910390f35b6102fd60048036038101906102f89190611bbd565b610cd6565b005b610307610ea9565b604051610314919061195f565b60405180910390f35b61033760048036038101906103329190611bfd565b610ef0565b005b610353600480360381019061034e91906116d7565b61104c565b6040516103609190611ba2565b60405180910390f35b610383600480360381019061037e9190611c98565b611195565b005b61038d61135e565b60405161039a9190611df8565b60405180910390f35b6103bd60048036038101906103b89190611919565b611418565b005b6000806003846040516103d29190611e56565b908152602001604051809103902060009054906101000a900473ffffffffffffffffffffffffffffffffffffffff169050600073ffffffffffffffffffffffffffffffffffffffff168173ffffffffffffffffffffffffffffffffffffffff1603610472576040517f08c379a000000000000000000000000000000000000000000000000000000000815260040161046990611eb9565b60405180910390fd5b826040516020016104839190611e56565b60405160208183030381529060405280519060200120600460008373ffffffffffffffffffffffffffffffffffffffff1673ffffffffffffffffffffffffffffffffffffffff1681526020019081526020016000206040516020016104e89190611fd1565b604051602081830303815290604052805190602001201461053e576040517f08c379a000000000000000000000000000000000000000000000000000000000815260040161053590612034565b60405180910390fd5b8091505092915050565b6000803373ffffffffffffffffffffffffffffffffffffffff1673ffffffffffffffffffffffffffffffffffffffff16815260200190815260200160002060009054906101000a900460ff16156105d4576040517f08c379a00000000000000000000000000000000000000000000000000000000081526004016105cb906120a0565b60405180910390fd5b60016000803373ffffffffffffffffffffffffffffffffffffffff1673ffffffffffffffffffffffffffffffffffffffff16815260200190815260200160002060006101000a81548160ff0219169083151502179055503360038360405161063c9190611e56565b908152602001604051809103902060006101000a81548173ffffffffffffffffffffffffffffffffffffffff021916908373ffffffffffffffffffffffffffffffffffffffff16021790555080600460003373ffffffffffffffffffffffffffffffffffffffff1673ffffffffffffffffffffffffffffffffffffffff16815260200190815260200160002090816106d49190612257565b503373ffffffffffffffffffffffffffffffffffffffff167fbcd9ee4b7a821e24c5294ba8c6e0879e94ac7af1ccf278948a42804d8be1cebf8360405161071b9190612329565b60405180910390a25050565b60018110158015610739575060058111155b610778576040517f08c379a000000000000000000000000000000000000000000000000000000000815260040161076f90612397565b60405180910390fd5b6000803373ffffffffffffffffffffffffffffffffffffffff1673ffffffffffffffffffffffffffffffffffffffff16815260200190815260200160002060009054906101000a900460ff16610803576040517f08c379a00000000000000000000000000000000000000000000000000000000081526004016107fa90612429565b60405180910390fd5b6000600660009054906101000a900473ffffffffffffffffffffffffffffffffffffffff1673ffffffffffffffffffffffffffffffffffffffff168360008460405160240161085493929190612491565b6040516020818303038152906040527f14be6526000000000000000000000000000000000000000000000000000000007bffffffffffffffffffffffffffffffffffffffffffffffffffffffff19166020820180517bffffffffffffffffffffffffffffffffffffffffffffffffffffffff83818316178352505050506040516108de919061250f565b6000604051808303816000865af19150503d806000811461091b576040519150601f19603f3d011682016040523d82523d6000602084013e610920565b606091505b5050905080610964576040517f08c379a000000000000000000000000000000000000000000000000000000000815260040161095b90612598565b60405180910390fd5b3373ffffffffffffffffffffffffffffffffffffffff168373ffffffffffffffffffffffffffffffffffffffff167f56d02be0efee267c8d00b1d33fcb63529028c8ce5b517f3abd9fb1debe4947f3846040516109c191906125b8565b60405180910390a3505050565b600560205281600052604060002081815481106109ea57600080fd5b906000526020600020906003020160009150915050806000015490806001015490806002018054610a1a90611f08565b80601f0160208091040260200160405190810160405280929190818152602001828054610a4690611f08565b8015610a935780601f10610a6857610100808354040283529160200191610a93565b820191906000526020600020905b815481529060010190602001808311610a7657829003601f168201915b5050505050905083565b60016020528060005260406000206000915090505481565b60026020528160005260406000208181548110610ad157600080fd5b9060005260206000209060030201600091509150508060000154908060010154908060020154905083565b6060600560003373ffffffffffffffffffffffffffffffffffffffff1673ffffffffffffffffffffffffffffffffffffffff168152602001908152602001600020805480602002602001604051908101604052809291908181526020016000905b82821015610c3557838290600052602060002090600302016040518060600160405290816000820154815260200160018201548152602001600282018054610ba490611f08565b80601f0160208091040260200160405190810160405280929190818152602001828054610bd090611f08565b8015610c1d5780601f10610bf257610100808354040283529160200191610c1d565b820191906000526020600020905b815481529060010190602001808311610c0057829003601f168201915b50505050508152505081526020019060010190610b5d565b50505050905090565b6000600382604051610c509190611e56565b908152602001604051809103902060009054906101000a900473ffffffffffffffffffffffffffffffffffffffff169050919050565b60006020528060005260406000206000915054906101000a900460ff1681565b6000309050919050565b600660009054906101000a900473ffffffffffffffffffffffffffffffffffffffff1681565b80600160003373ffffffffffffffffffffffffffffffffffffffff1673ffffffffffffffffffffffffffffffffffffffff168152602001908152602001600020541215610d58576040517f08c379a0000000000000000000000000000000000000000000000000000000008152600401610d4f9061261f565b60405180910390fd5b80600160003373ffffffffffffffffffffffffffffffffffffffff1673ffffffffffffffffffffffffffffffffffffffff1681526020019081526020016000206000828254610da7919061266e565b9250508190555060006040518060600160405280848152602001838152602001428152509050600260003373ffffffffffffffffffffffffffffffffffffffff1673ffffffffffffffffffffffffffffffffffffffff16815260200190815260200160002081908060018154018082558091505060019003906000526020600020906003020160009091909190915060008201518160000155602082015181600101556040820151816002015550503373ffffffffffffffffffffffffffffffffffffffff167ff6af08f00d4fc13a2c8f9cbb9142f3699c437dfb4a1fa364406a0a00a4f2024883604051610e9c91906126fd565b60405180910390a2505050565b6000600160003373ffffffffffffffffffffffffffffffffffffffff1673ffffffffffffffffffffffffffffffffffffffff16815260200190815260200160002054905090565b60018210158015610f02575060058211155b610f41576040517f08c379a0000000000000000000000000000000000000000000000000000000008152600401610f3890612397565b60405180910390fd5b60006040518060600160405280858152602001848152602001838152509050600560003373ffffffffffffffffffffffffffffffffffffffff1673ffffffffffffffffffffffffffffffffffffffff16815260200190815260200160002081908060018154018082558091505060019003906000526020600020906003020160009091909190915060008201518160000155602082015181600101556040820151816002019081610ff29190612257565b5050503373ffffffffffffffffffffffffffffffffffffffff16847f26ef10767f94ec1a55a76c37c915b04c1c548db6620a9f042ca98807c4de75c3858560405161103e92919061272b565b60405180910390a350505050565b60008060038460405161105f9190611e56565b908152602001604051809103902060009054906101000a900473ffffffffffffffffffffffffffffffffffffffff169050600073ffffffffffffffffffffffffffffffffffffffff168173ffffffffffffffffffffffffffffffffffffffff16036110ff576040517f08c379a00000000000000000000000000000000000000000000000000000000081526004016110f690611eb9565b60405180910390fd5b826040516020016111109190611e56565b60405160208183030381529060405280519060200120600460008373ffffffffffffffffffffffffffffffffffffffff1673ffffffffffffffffffffffffffffffffffffffff1681526020019081526020016000206040516020016111759190611fd1565b604051602081830303815290604052805190602001201491505092915050565b600760009054906101000a900473ffffffffffffffffffffffffffffffffffffffff1673ffffffffffffffffffffffffffffffffffffffff163373ffffffffffffffffffffffffffffffffffffffff1614611225576040517f08c379a000000000000000000000000000000000000000000000000000000000815260040161121c906127cd565b60405180910390fd5b600082600160008673ffffffffffffffffffffffffffffffffffffffff1673ffffffffffffffffffffffffffffffffffffffff1681526020019081526020016000205461127291906127ed565b12156112b3576040517f08c379a00000000000000000000000000000000000000000000000000000000081526004016112aa9061261f565b60405180910390fd5b81600160008573ffffffffffffffffffffffffffffffffffffffff1673ffffffffffffffffffffffffffffffffffffffff168152602001908152602001600020600082825461130291906127ed565b925050819055508273ffffffffffffffffffffffffffffffffffffffff167f85b889929cbb1a1380afd926b937c322436603064bf95637da4256393904c36c8383604051611351929190612831565b60405180910390a2505050565b6060600260003373ffffffffffffffffffffffffffffffffffffffff1673ffffffffffffffffffffffffffffffffffffffff168152602001908152602001600020805480602002602001604051908101604052809291908181526020016000905b8282101561140f57838290600052602060002090600302016040518060600160405290816000820154815260200160018201548152602001600282015481525050815260200190600101906113bf565b50505050905090565b600073ffffffffffffffffffffffffffffffffffffffff16600660009054906101000a900473ffffffffffffffffffffffffffffffffffffffff1673ffffffffffffffffffffffffffffffffffffffff16146114a9576040517f08c379a00000000000000000000000000000000000000000000000000000000081526004016114a0906128d3565b60405180910390fd5b600760009054906101000a900473ffffffffffffffffffffffffffffffffffffffff1673ffffffffffffffffffffffffffffffffffffffff163373ffffffffffffffffffffffffffffffffffffffff1614611539576040517f08c379a0000000000000000000000000000000000000000000000000000000008152600401611530906127cd565b60405180910390fd5b80600660006101000a81548173ffffffffffffffffffffffffffffffffffffffff021916908373ffffffffffffffffffffffffffffffffffffffff16021790555050565b6000604051905090565b600080fd5b600080fd5b600080fd5b600080fd5b6000601f19601f8301169050919050565b7f4e487b7100000000000000000000000000000000000000000000000000000000600052604160045260246000fd5b6115e48261159b565b810181811067ffffffffffffffff82111715611603576116026115ac565b5b80604052505050565b600061161661157d565b905061162282826115db565b919050565b600067ffffffffffffffff821115611642576116416115ac565b5b61164b8261159b565b9050602081019050919050565b82818337600083830152505050565b600061167a61167584611627565b61160c565b90508281526020810184848401111561169657611695611596565b5b6116a1848285611658565b509392505050565b600082601f8301126116be576116bd611591565b5b81356116ce848260208601611667565b91505092915050565b600080604083850312156116ee576116ed611587565b5b600083013567ffffffffffffffff81111561170c5761170b61158c565b5b611718858286016116a9565b925050602083013567ffffffffffffffff8111156117395761173861158c565b5b611745858286016116a9565b9150509250929050565b600073ffffffffffffffffffffffffffffffffffffffff82169050919050565b600061177a8261174f565b9050919050565b61178a8161176f565b82525050565b60006020820190506117a56000830184611781565b92915050565b6117b48161176f565b81146117bf57600080fd5b50565b6000813590506117d1816117ab565b92915050565b6000819050919050565b6117ea816117d7565b81146117f557600080fd5b50565b600081359050611807816117e1565b92915050565b6000806040838503121561182457611823611587565b5b6000611832858286016117c2565b9250506020611843858286016117f8565b9150509250929050565b611856816117d7565b82525050565b600081519050919050565b600082825260208201905092915050565b60005b8381101561189657808201518184015260208101905061187b565b60008484015250505050565b60006118ad8261185c565b6118b78185611867565b93506118c7818560208601611878565b6118d08161159b565b840191505092915050565b60006060820190506118f0600083018661184d565b6118fd602083018561184d565b818103604083015261190f81846118a2565b9050949350505050565b60006020828403121561192f5761192e611587565b5b600061193d848285016117c2565b91505092915050565b6000819050919050565b61195981611946565b82525050565b60006020820190506119746000830184611950565b92915050565b600060608201905061198f600083018661184d565b61199c602083018561184d565b6119a9604083018461184d565b949350505050565b600081519050919050565b600082825260208201905092915050565b6000819050602082019050919050565b6119e6816117d7565b82525050565b600082825260208201905092915050565b6000611a088261185c565b611a1281856119ec565b9350611a22818560208601611878565b611a2b8161159b565b840191505092915050565b6000606083016000830151611a4e60008601826119dd565b506020830151611a6160208601826119dd565b5060408301518482036040860152611a7982826119fd565b9150508091505092915050565b6000611a928383611a36565b905092915050565b6000602082019050919050565b6000611ab2826119b1565b611abc81856119bc565b935083602082028501611ace856119cd565b8060005b85811015611b0a5784840389528151611aeb8582611a86565b9450611af683611a9a565b925060208a01995050600181019050611ad2565b50829750879550505050505092915050565b60006020820190508181036000830152611b368184611aa7565b905092915050565b600060208284031215611b5457611b53611587565b5b600082013567ffffffffffffffff811115611b7257611b7161158c565b5b611b7e848285016116a9565b91505092915050565b60008115159050919050565b611b9c81611b87565b82525050565b6000602082019050611bb76000830184611b93565b92915050565b60008060408385031215611bd457611bd3611587565b5b6000611be2858286016117f8565b9250506020611bf3858286016117f8565b9150509250929050565b600080600060608486031215611c1657611c15611587565b5b6000611c24868287016117f8565b9350506020611c35868287016117f8565b925050604084013567ffffffffffffffff811115611c5657611c5561158c565b5b611c62868287016116a9565b9150509250925092565b611c7581611946565b8114611c8057600080fd5b50565b600081359050611c9281611c6c565b92915050565b600080600060608486031215611cb157611cb0611587565b5b6000611cbf868287016117c2565b9350506020611cd086828701611c83565b925050604084013567ffffffffffffffff811115611cf157611cf061158c565b5b611cfd868287016116a9565b9150509250925092565b600081519050919050565b600082825260208201905092915050565b6000819050602082019050919050565b606082016000820151611d4960008501826119dd565b506020820151611d5c60208501826119dd565b506040820151611d6f60408501826119dd565b50505050565b6000611d818383611d33565b60608301905092915050565b6000602082019050919050565b6000611da582611d07565b611daf8185611d12565b9350611dba83611d23565b8060005b83811015611deb578151611dd28882611d75565b9750611ddd83611d8d565b925050600181019050611dbe565b5085935050505092915050565b60006020820190508181036000830152611e128184611d9a565b905092915050565b600081905092915050565b6000611e308261185c565b611e3a8185611e1a565b9350611e4a818560208601611878565b80840191505092915050565b6000611e628284611e25565b915081905092915050565b7f55736572206e6f7420666f756e64000000000000000000000000000000000000600082015250565b6000611ea3600e83611867565b9150611eae82611e6d565b602082019050919050565b60006020820190508181036000830152611ed281611e96565b9050919050565b7f4e487b7100000000000000000000000000000000000000000000000000000000600052602260045260246000fd5b60006002820490506001821680611f2057607f821691505b602082108103611f3357611f32611ed9565b5b50919050565b60008190508160005260206000209050919050565b60008154611f5b81611f08565b611f658186611e1a565b94506001821660008114611f805760018114611f9557611fc8565b60ff1983168652811515820286019350611fc8565b611f9e85611f39565b60005b83811015611fc057815481890152600182019150602081019050611fa1565b838801955050505b50505092915050565b6000611fdd8284611f4e565b915081905092915050565b7f496e636f72726563742070617373776f72640000000000000000000000000000600082015250565b600061201e601283611867565b915061202982611fe8565b602082019050919050565b6000602082019050818103600083015261204d81612011565b9050919050565b7f5573657220616c72656164792072656769737465726564000000000000000000600082015250565b600061208a601783611867565b915061209582612054565b602082019050919050565b600060208201905081810360008301526120b98161207d565b9050919050565b60006020601f8301049050919050565b600082821b905092915050565b60006008830261210d7fffffffffffffffffffffffffffffffffffffffffffffffffffffffffffffffff826120d0565b61211786836120d0565b95508019841693508086168417925050509392505050565b6000819050919050565b600061215461214f61214a846117d7565b61212f565b6117d7565b9050919050565b6000819050919050565b61216e83612139565b61218261217a8261215b565b8484546120dd565b825550505050565b600090565b61219761218a565b6121a2818484612165565b505050565b5b818110156121c6576121bb60008261218f565b6001810190506121a8565b5050565b601f82111561220b576121dc81611f39565b6121e5846120c0565b810160208510156121f4578190505b612208612200856120c0565b8301826121a7565b50505b505050565b600082821c905092915050565b600061222e60001984600802612210565b1980831691505092915050565b6000612247838361221d565b9150826002028217905092915050565b6122608261185c565b67ffffffffffffffff811115612279576122786115ac565b5b6122838254611f08565b61228e8282856121ca565b600060209050601f8311600181146122c157600084156122af578287015190505b6122b9858261223b565b865550612321565b601f1984166122cf86611f39565b60005b828110156122f7578489015182556001820191506020850194506020810190506122d2565b868310156123145784890151612310601f89168261221d565b8355505b6001600288020188555050505b505050505050565b6000602082019050818103600083015261234381846118a2565b905092915050565b7f526174696e67206d757374206265206265747765656e203120616e6420350000600082015250565b6000612381601e83611867565b915061238c8261234b565b602082019050919050565b600060208201905081810360008301526123b081612374565b9050919050565b7f4f6e6c7920726567697374657265642075736572732063616e2063616c6c207460008201527f6869732066756e6374696f6e0000000000000000000000000000000000000000602082015250565b6000612413602c83611867565b915061241e826123b7565b604082019050919050565b6000602082019050818103600083015261244281612406565b9050919050565b6000819050919050565b600060ff82169050919050565b600061247b61247661247184612449565b61212f565b612453565b9050919050565b61248b81612460565b82525050565b60006060820190506124a66000830186611781565b6124b36020830185612482565b6124c0604083018461184d565b949350505050565b600081519050919050565b600081905092915050565b60006124e9826124c8565b6124f381856124d3565b9350612503818560208601611878565b80840191505092915050565b600061251b82846124de565b915081905092915050565b7f4661696c656420746f2063616c6c2072617465557365722066756e6374696f6e60008201527f20696e204d65726368616e74436f6e74726163745f6878000000000000000000602082015250565b6000612582603783611867565b915061258d82612526565b604082019050919050565b600060208201905081810360008301526125b181612575565b9050919050565b60006020820190506125cd600083018461184d565b92915050565b7f496e73756666696369656e742062616c616e6365000000000000000000000000600082015250565b6000612609601483611867565b9150612614826125d3565b602082019050919050565b60006020820190508181036000830152612638816125fc565b9050919050565b7f4e487b7100000000000000000000000000000000000000000000000000000000600052601160045260246000fd5b600061267982611946565b915061268483611946565b92508282039050818112600084121682821360008512151617156126ab576126aa61263f565b5b92915050565b7f50726f6475637420707572636861736564000000000000000000000000000000600082015250565b60006126e7601183611867565b91506126f2826126b1565b602082019050919050565b6000604082019050612712600083018461184d565b8181036020830152612723816126da565b905092915050565b6000604082019050612740600083018561184d565b818103602083015261275281846118a2565b90509392505050565b7f4f6e6c79206f776e65722063616e2063616c6c20746869732066756e6374696f60008201527f6e00000000000000000000000000000000000000000000000000000000000000602082015250565b60006127b7602183611867565b91506127c28261275b565b604082019050919050565b600060208201905081810360008301526127e6816127aa565b9050919050565b60006127f882611946565b915061280383611946565b92508282019050828112156000831216838212600084121516171561282b5761282a61263f565b5b92915050565b60006040820190506128466000830185611950565b818103602083015261285881846118a2565b90509392505050565b7f4d65726368616e7420636f6e7472616374206164647265737320616c7265616460008201527f7920736574000000000000000000000000000000000000000000000000000000602082015250565b60006128bd602583611867565b91506128c882612861565b604082019050919050565b600060208201905081810360008301526128ec816128b0565b905091905056fea2646970667358221220a9777cc22eb87f78c507c3875e0722da469b3564a5f852fa6265abd986a7890064736f6c63430008180033",
  "linkReferences": {},
  "deployedLinkReferences": {}
}